:1020000000800020617B00004B7B00004B7B0000C8
:1020100000000000000000000000000000000000C0
:102020000000000000000000000000004B7B0000EA
:1020300000000000000000004B7B0000B57B0000AA
:102040004B7B00004B7B00004B7B00004B7B000078
:102050004B7B00004B7B00004B7B00004D7B000066
:102060004B7B00004B7B00004B7B00004B7B000058
:102070004B7B0000FD5B0000ED5B00004B7B000034
:102080004B7B00004B7B00004B7B00004B7B000038
:10209000000000004B7B00004B7B00004B7B0000EE
:1020A0004B7B00004B7B00004B7B00004B7B000018
:1020B0000000000010B5064C2378002B07D1054B1B
:1020C000002B02D0044800E000BF0123237010BDA4
:1020D000B000002000000000E08B0000044B10B5B1
:1020E000002B03D00349044800E000BF10BDC046E8
:1020F00000000000B4000020E08B0000034810B591
:1021000001F0A4F8012006F015F9C046E000002017
:1021100073B5244D244E08232A00310001A800F095
:10212000B3F801A800F0CEF8204C00280DD12049CA
:10213000200005F0A2FC2900200005F09EFC1D49AE
:10214000200005F09AFCFFF7D9FF1B49200005F09D
:1021500094FC01A800F0C8F8002811D16B46DD1CE2
:102160000122290001A800F0B3F80028F1D0297855
:10217000200005F086FC2B780A2BEAD10F49E5E711
:1021800001A800F0BBF80E49200005F087FC0D49BE
:10219000200005F083FC300001F058F8002006F024
:1021A000C9F8C04604000020E0000020500D0020C7
:1021B000F0850000FE8500002086000037860000C4
:1021C0003A8600004786000010B5202202490348E5
:1021D00000F0A0F810BDC04670080020CC00002020
:1021E00070B501211E2005F0D3FE00211E2005F050
:1021F0001BFF9621124C8901200003F0F9FF2000FB
:1022000004F046F90028FAD00E4800F094F80E4980
:10221000200005F043FC0D4800F01EF8051E0ED00E
:102220000B4B98420BD00B49200005F037FC0A22DB
:102230002900200005F07FFC012006F07BF870BD2E
:10224000500D0020CC00002074860000E00000202B
:10225000D7D8FFFF818600001FB500210391902190
:10226000C9000291A139FF39411898230191020058
:1022700080219B000091C3186032024900F08CFF5E
:1022800005B000BDD400002010B504000800110006
:102290001A00002301F000F80100200000F038F8D7
:1022A000200010BD034B044A1A60044A5A60044AD5
:1022B0009A607047D40000203125000045250000B9
:1022C000592500000088C04380B2C00B7047000051
:1022D00010B50C0013000022815E2200014801F0BD
:1022E0006BF810BDE000002010B50023C15E02486D
:1022F00001F0E6F810BDC046E000002010B5002354
:10230000C15E024801F0BAF810BDC046E0000020EE
:102310000180704701604260704710B5406800213D
:10232000C0B205F081FE10BD10B540680121C0B2F9
:1023300005F07AFE10BD10B5040000680368DB6A82
:10234000984763680121D8B205F022FE2000FFF70C
:10235000EBFF10BD70B50400FFF7DFFF20680A4BEC
:102360000268D56906CBA8472068052103689B68E9
:1023700098472068002103689B6898470500200063
:10238000FFF7D2FF280070BD4008002010B5FFF70E
:10239000E1FF0123184010BDF8B504000F0015003F
:1023A0001E002000FFF7F2FF002803D0012005F0F7
:1023B00067FCF6E72000FFF7B0FF2068154A0368C6
:1023C0001168DB6952689847206803210368AE19D9
:1023D0009B6898472068390C0368C9B29B68984786
:1023E0002068390A0368C9B29B6898472068F9B227
:1023F00003689B689847AE4207D0206800210368B5
:102400009B68984728700135F5E72000FFF78CFF9F
:10241000F8BDC0464808002070B50400FFF77DFFF6
:102420002068074B0268D56906CBA84720680621BB
:1024300003689B6898472000FFF776FF70BDC04691
:1024400040080020F8B504000F0015001E00200011
:10245000FFF79CFF002803D0012005F011FCF6E7F0
:102460002000FFF7D9FF2000FFF757FF2068154A2B
:1024700003681168DB695268984720680221036885
:10248000AE199B6898472068390C0368C9B29B68ED
:1024900098472068390A0368C9B29B689847206842
:1024A000F9B203689B689847AE4206D02068297845
:1024B000036801359B689847F6E72000FFF734FF73
:1024C000F8BDC0464008002070B504000D00200093
:1024D000FFF75CFF002803D0012005F0D1FBF6E7F1
:1024E0002000FFF799FF2000FFF717FF20680F4B30
:1024F0000268D66906CBB0472068202103689B6834
:1025000098472068290C0368C9B29B6898472068DF
:10251000290A0368C9B29B6898472068E9B2036832
:102520009B6898472000FFF7FFFE70BD4008002021
:1025300010B50B0001000248FFF72EFF002010BD70
:10254000CC00002010B50B0001000248FFF77AFF15
:10255000002010BDCC00002010B501000248FFF79C
:10256000B3FF002010BDC046CC000020064B074A38
:1025700000211A60012219715A710548054B186033
:1025800019715A717047C0464008002000EA3206AF
:1025900080F0FA024808002001238B40F7B5446C14
:1025A0000193019DA368060000202B421CD08A25C0
:1025B0006D00694323695D1882420FD02A7857B2B3
:1025C00087420BDB01273A4208D00A008021288984
:1025D00014329A180002736849009847A368019A58
:1025E0009343A36000232B70FEBDC368F0B58468DD
:1025F00002002340181E17D08A27002315787F0079
:10260000AB4201DB00200FE00120984004420CD0D7
:10261000380058431669301806787F2E05D8068989
:102620008E4202D153684360F0BD0133E8E782680F
:10263000010030B50020531C13D000230125087879
:10264000834201DB00200CE02C009C40144209D1A5
:102650008A20400058430B69224318184B688A604F
:10266000436030BD0133EBE7F8B5446C0700E26826
:10267000A368002013409A420ED1237801219C4682
:10268000020003004942624507DB00204B1C03D0D7
:1026900001223800FFF780FFF8BD8A2676005643F6
:1026A0002569AE19706865682D1A9D4204D936787F
:1026B0007F2E01D82B0011000132E4E710B5040091
:1026C000406CFFF792FF002804D0417800222000E0
:1026D000FFF762FF10BDF7B5466C1C001B0A9BB2EA
:1026E00005000F00300019000193FFF77EFF7368AB
:1026F00001337360002810D08A2143604378490079
:102700005943E4B2143409193469089A61180998D4
:1027100005F05EFE00273800FEBD03231F40012F99
:1027200006D12B68099A0899200098470700F2E71C
:102730002800FFF799FF0700686CFFF778FF00900B
:10274000002824D002236A4603708A2392885B0003
:102750000281427880215A43336914329A1820004A
:10276000FF23490098432B6898478A214900002895
:1027700000D00700009BE4B25B7814345943091978
:102780003469089A6118099805F022FEC3E72B689E
:10279000099A0899200098470028C7D1BBE7F7B5E8
:1027A000476C0191190A050089B238001C00FFF737
:1027B0001CFF061E0CD01C22019B1A40182A07D0B1
:1027C0004178002A0AD19B0708D02800FFF7E4FED1
:1027D0006B68099A08992000984714E08A235B00E7
:1027E0005943E0B23B69143040181818089A099907
:1027F00005F0EEFD02227B6801337B607360337865
:102800001340181EE4D1FEBDF7B5426C9468D3683E
:102810002340181E09D013788A260193012500232E
:1028200076000198984201DC0020FEBD2800984007
:1028300004420BD0300058431769381807787F2FAF
:1028400004D90789BC46CF88BC45EED00133E8E700
:1028500070B50C1E0FD03021C56A836A69431A1DFA
:102860005B18002104339A4206D161780022FFF7F9
:1028700093FE0023238170BD0026955F002D03D0B9
:10288000D569A54200D1D1613032ECE7F0B5476C93
:1028900089B00600002F36D08A21806C4900143898
:1028A00005F0AEFC041E2ED0002301210193019AF5
:1028B000013352000A4301929C42F8DC03AD082226
:1028C0000021280005F08DFD3B0014332B6101230E
:1028D0005B42AB60019B290014223800EB602C7036
:1028E00005F076FD756C8A262A7876007243002101
:1028F000286905F076FDAB68EA68E4B29343AB6003
:1029000000239C4201DC09B0F0BD32005A43296922
:102910008A1853700133F4E7F8B506000C0001F093
:1029200009F9051E0CDB2401A4B227001037BFB241
:10293000210001343000A4B2FFF7C0FEBC42F7D141
:102940002800F8BDF0B505000F000024C36887B06B
:102950000393036A0293A2B20492039A2303A2424E
:1029600001D11E4835E02A6A1421019280225200CA
:10297000009228000022FFF7AEFE0299184E0B00CD
:102980001E3305930023B4461A0098420BD0012849
:1029900013D9013400281CD1DDE70888002806D1AE
:1029A000013292B2023105988142F6D105E06045CC
:1029B00003D101339BB2BB42F4D9D1180F290AD1FC
:1029C000BB4208D8EB6B04999A1AEA632800FFF718
:1029D000A3FF07B0F0BD0134BDE7C046D3D8FFFF69
:1029E000FFFF0000F7B58022046A52000B0300923B
:1029F00014210022019405002600FFF76CFE00223E
:102A000023001E3611000B4F90420DD0AB6B9A1A6B
:102A1000EB6BAA63591AE963FEBD1C88BC4202D065
:102A2000002C04D1013102339E42F6D1EEE701328F
:102A3000F9E7C046FFFF0000F0B51D00C36893B082
:102A40000593036A04000C93059B0F0008920393FF
:102A5000292B01D92923039300268022089B5200A9
:102A60001E60FF21606A05F0BCFC636A0296069353
:102A7000039B069A5B00D318032209930333934305
:102A80000A93069B0A9A3B606B425D4132236D427A
:102A90002B400F93039B9B009B180E936A46128951
:102AA000029B0D920599029A1B038A4201D10020D4
:102AB0004FE0226A142101928022520000922000ED
:102AC0000022FFF708FE0C9B002519002F001E3185
:102AD0003A4EA84247D001283BD10E266B460EAA9B
:102AE000B61802221B8915211B030092FE330196A2
:102AF00000222000FFF7EFFD00282ADB231DDA8FDC
:102B000033889A4235D9D31A052257430F9A9BB27C
:102B100053437D1BEB18079300230699274D039A17
:102B200093420BDA0A9E9A0092190E880B91AE42DC
:102B300022D16B469B8E0B80079B1360089B089AE3
:102B40001B68049301331360029B01330293002836
:102B5000A4D013B0F0BD1A88B242BED0002A05D16D
:102B60000137BFB202339942F5D1B6E70135ADB2B4
:102B7000F8E79B1ADB43C7E70B991668079F0231FA
:102B8000BE4219DA0399099D023904910E99049EF7
:102B9000023D0F1FB34204DD69460B9B898E1980ED
:102BA000CAE7AE1E0839368809682E803960049954
:102BB000013904913900EAE70133B0E7FFFF000073
:102BC000F0B50500036A9BB00F93436A0C00142212
:102BD000002115A80A9305F004FC2B8AA34206D114
:102BE000601CE96805F092FB002329826B612301D8
:102BF00001339BB211930F9B24031B1910930023E5
:102C000008938FE10C9A109B14219B1A0D932B6A49
:102C10000022019380235B00009328000D9BFFF7A7
:102C20005AFD0400002C07D1079B0E9A9B1A7F2B9C
:102C300002DC079B0E2B01DD3B0088E0079B0C9A12
:102C40005B00D35A079A0993119B9B189BB215AA54
:102C500008931378012B15D0002B04D0022B00D140
:102C60008FE023006DE06B462421595E3B00002974
:102C700000DC66E06B469B8C177453806B461B8CA4
:102C80001381EEE7528809993B008A4259D1052207
:102C9000089B13AE00921B0222000196152128000A
:102CA000FFF719FD041E2DDB73880020682B05D962
:102CB000693B18007C2105F0A3FA013015AB9E8812
:102CC00086423DD113AB1A797F2A1ED91A220CA94C
:102CD00052180292089A009301920022099B110057
:102CE000280001F027F9041E0CDB2B6A0022019357
:102CF00080235B00009314210D9B2800FFF7EBFC61
:102D0000041E0EDA20001BB0F0BD0899280001F067
:102D1000E1F8041EF6DB1A230CAA9B18012252428A
:102D20001A8013AB58881A230CAA9B181B88099386
:102D3000002E1CD117306A460A9B928C40001A5212
:102D40003B00079A01320792002B00D06AE70B9AEA
:102D500001320B92002B6BD00E9B80330E930C9B99
:102D6000013BFF3B0C93002C00D12DE1CAE7682802
:102D700001D80430DFE769387C2105F0C7FA081D67
:102D8000D9E7099B984A99499A1892B23B008A421E
:102D9000D7D80522089B13AE00921B022200019691
:102DA00015212800FFF797FC041EABDB33797F2B3E
:102DB0002BD91A230CAA9B1800220293089B009679
:102DC00001931100099B280001F0B4F8041E00DAF9
:102DD00098E700240CAB02945B8B13A901934B88FA
:102DE000032200932800099B01F022F92B6A22009C
:102DF000019380235B00009314210D9B2800FFF7B3
:102E00006AFC0400002C9BDA7CE70899280001F09A
:102E100061F8041EF6D10021089B0291019313ABC7
:102E20005B88022200932800099B01F001F987E7E3
:102E3000002C00D1CCE065E70B7C002B70D0079B09
:102E40000522CB6001230B70089B13AF00921B027D
:102E50000197320015212800FFF73DFC041E00DA1F
:102E600050E778883700682805D969387C2105F053
:102E7000C7F9013087B2802315AE71881B02194350
:102E80001A230CAA9B18B7803A000093280000234D
:102E900000F066FF564B040098420CD1318928009F
:102EA00001F018F8041E00DA2CE700233370002C20
:102EB00000D027E771E0002800DA23E76A6A0CAB4C
:102EC0005B8B01928022520000921B02002215218E
:102ED0002800FFF700FC041E00DA13E70A9B1B79A9
:102EE000DA0713D45AB2002A12DA9A0712D404224B
:102EF0001A4011D10A9B9978DB781B020B43BB4225
:102F00000CD10CAB5B8B0792F380D0E7394CF9E620
:102F1000394CF7E6394CF5E6394CF3E6394CF1E635
:102F200002220A70079338E080220026CB68120242
:102F300007934B880E7009931A43CB888988686A77
:102F400013AFB1420BD1009004970391029101910C
:102F5000280001F095F90400B042A8DAD2E6019306
:102F600002971300009602003100280000F0E2FFF3
:102F7000041E00DAC6E602963B88696A01930A9B42
:102F800028009A78DB781B02134300933200099BD8
:102F900001F04EF88BE703230B7015AB1A78002471
:102FA000032A00D1AEE67F2201271C74079BDB17A2
:102FB0001340079A9B18DB110B93DB010E930B9BBD
:102FC0000F9A1B02D31A0C930B9B002B00DC19E603
:102FD00015A90E78012EA7D0002E00D12CE7022EC5
:102FE000D9D000239EE7C0460080FFFFFE7F00008F
:102FF000EED8FFFFE4D8FFFFECD8FFFFEBD8FFFFD0
:10300000EAD8FFFFE3D8FFFFF0B50F26C36887B00B
:103010005E43836B0400F61AC36B1E3EF51A436BC6
:103020000F00032B04D9FB236B4300208B4219DCD8
:103030003800FB21FA3005F0E3F80290864244DBC9
:10304000052301936B1E2B43DB0F05AA04A9200067
:10305000FFF7F2FC002805DB0598002804D1029B4D
:10306000AB4232DA07B0F0BD049B01221E88230078
:1030700040331A70310020000393FFF7A1FD0023B5
:10308000039A13709842EDDB31002000FFF7AAFC91
:103090000028E7DB31002000FFF73EFC0028E1DBE1
:1030A0000F22E3685343A26B9B1AE26B1E3B9B1AF1
:1030B000002D01DC9D4204D0019A013A0192002AC0
:1030C00005D1FB225343BB42CCDA0548CAE7626B09
:1030D000022A03D9FB225A43BA42F2DA1D00B1E7B1
:1030E000EFD8FFFFF7B584680700019115001E00B7
:1030F000631C17D03300944210D9A41AB44200DDE7
:1031000034002300019A2900380001F049FC00280E
:1031100007DB019A331B121901922D19002B03DCD6
:103120003000FEBD3300F9E7019A2900380001F0B4
:103130007FF90028F4DAF4E773B501AA050002F07C
:103140005BFB041E02DA2863200076BD019EB38B70
:103150009B06F9D4336A002B04D131002800FFF715
:1031600053FB30620198026A002AEDD08A2156781A
:10317000490071436C6C14312469138A6118D26858
:10318000FFF7B0FF041E00DA2863019B2800196ACC
:10319000FFF75EFBD8E70000F7B504001D00836D64
:1031A000170001916022002100930A9E05F019F991
:1031B0000C220199200005F00BF9009B089AA365E9
:1031C00080239B00E3607B1CFF3367622362002146
:1031D000280005F006F903222A4005D004239B1A93
:1031E000089AED18D31A0893A5623021089805F0C3
:1031F00007F80322099BE0621A4005D004239B1ABA
:10320000099AF61AD218099203231E4200D09E434F
:103210008022099B920163643300964200D9130017
:10322000A3642000FFF732FB074B2000E36500F0AA
:10323000BDFC002801DA2063FEBD0B9B0020E36487
:10324000012354342370F7E715030920F8B5C26D44
:10325000104B04009A420CD1070054373B78002BE6
:1032600007D00026836A1D1DE36AB34202D80023FB
:103270003B70F8BD0023E95E002907D02000FFF76E
:103280005BFF0023E95E200002F09AFA0136303538
:10329000EAE7C04615030920F0B587B0170003938D
:1032A000C26D3F4B05000E009A4204D03D4C2C638A
:1032B000200007B0F0BD030054331B78002B01D170
:1032C000394CF4E7080005F059F91F2801D9374CAB
:1032D000EDE7320005A9280002F000FA002802DA22
:1032E000286304B2E4E704AA3100280001F0BAFD23
:1032F00004007B0734D4002824DA059B280004212D
:10330000595E02F05DFA2C6324B2D1E7002CF4DBA5
:1033100002AB1989039B059A009328003B0001F03A
:103320002FF8041EE9DBBB0706D500220598110023
:1033300001F0C6FD041EE0DB0022059B9A61042417
:103340001C5FB5E70028E3D144233B40442BDFD189
:10335000059B28000421595E02F032FA144CA6E7BE
:103360000028F1D0134B9C42D0D10A2302A95B184C
:1033700000221900280002F003F9041EBDDB02AB95
:10338000598904AB019301233200009328000023E4
:1033900000F0FAFE041EB0DB02239F43B8E7C046EC
:1033A00015030920D8D8FFFFF0D8FFFFCCD8FFFFC6
:1033B000D2D8FFFFEED8FFFFF7B516001C00C26D94
:1033C000294B05000F009A4203D0284C2C632000A3
:1033D000FEBD030054331B78002B01D1244CF5E7CC
:1033E00001AA02F009FA002805DA04002863214B3B
:1033F0009C420DD0EBE7019B9A8B120701D41E4C27
:10340000E4E79B68013305D1002C03DD194B2B63E6
:103410000024DCE739002800FFF78EFE019881695F
:1034200083680A199A4214D35C1A002CEEDD33002B
:10343000220001F0ADFF0F4B984206D12000019A07
:1034400093691B1993610400C1E7002807DA286318
:10345000F9E73300220001F09BFF0028C5DB019A49
:1034600093691B199361C2E715030920D8D8FFFFA0
:10347000F0D8FFFFEDD8FFFFDAD8FFFF0D4BC26D8C
:1034800070B504000D009A4202D00B48206310E092
:10349000030054331B78002B01D10848F6E7FFF7EF
:1034A0004BFE0028F2DB2900200002F089F90028F9
:1034B000ECDB70BD15030920D8D8FFFFF0D8FFFF63
:1034C00037B5124BC26D04000D009A4202D010486D
:1034D00020633EBD030054331B78002B01D10D48FF
:1034E000F6E701AA02F088F90028F1DB29002000A4
:1034F000FFF722FE0028EBDB019B00209A699B6806
:10350000591C00D103009A424041E2E7150309200B
:10351000D8D8FFFFF0D8FFFFF0B512015C1C1419DA
:10352000052285B0A4B202AD0F00009223020195DE
:10353000103200210A9EFFF7CEF800281DDB2B88F1
:10354000BB421CD10B9A698812888A4217D129790B
:103550007C200D008543802D11D11BB2002B03DA96
:103560004B0601D4002A0AD0301E06D03088001B3A
:1035700044426041034C4042204005B0F0BD014848
:10358000FBE7C046AAD8FFFF7FB51D001B4B0C0010
:103590009A4224D0130725D080239B019A4223D836
:1035A00013020421625E052102AE009101961131E1
:1035B000FFF791F8002813DB3379DA0716D45AB2F3
:1035C000002A15DA9A0715D45B0715D40622A35EE4
:1035D000002B11DA7388AB4202D0094800E0094899
:1035E00004B070BD0848FBE70848F9E70848F7E76A
:1035F0000848F5E70848F3E70848F1E7FFFF00004F
:10360000E3D8FFFFDED8FFFFDDD8FFFFDCD8FFFFE8
:10361000E4D8FFFFECD8FFFFEBD8FFFFEAD8FFFFAD
:10362000120130B50133D318134A8FB08918134AE9
:1036300089B29BB291421BD82E2202AC00921B028F
:10364000019400221521FFF746F8002811DB658858
:10365000002D0DD13D2223799343C02B08D1152194
:103660001298694404F080FF03002800002B00D06A
:1036700003480FB030BDC0460080FFFFFE7F000052
:10368000AAD8FFFFF0B505000C002148013989B226
:103690008FB0814201D91F4827E015990E881499EF
:1036A000002924D021B2002921DA12010133D318D4
:1036B0002E229BB202AF00921B020197002215211D
:1036C0002800FFF708F800280FDB7B88002B0ED1BD
:1036D0003D223B799343C02B09D1152114986944AD
:1036E00004F042FF002802D10B480FB0F0BD640483
:1036F000640CA41BE310FF2BCDD86A6AD2180723F1
:103700001C40063BA34011780B431370C3E7C0462F
:10371000FDFF0000AAD8FFFFD9D8FFFF094A914258
:1037200006D1002B02D1436B013343630648704737
:10373000002903D1C36B0133C363F7E7836B013304
:103740008363F3E7FFFF0000AAD8FFFFF0B585B061
:1037500001910292078906000025682F06D93800DA
:103760007C21693804F04CFD013085B27489002059
:10377000682C06D920007C21693804F041FD013015
:1037800080B2019B9D421CD883421AD8002B1AD0CC
:103790007C23019A5A43133A92B29B1801349BB28C
:1037A000A34200DD23009BB203933C1C974200D24E
:1037B000141CA4B2251D144F6D00039AA3B29A42A3
:1037C00004D805B0F0BD019A6923E6E7019A002A02
:1037D0000CD1029B5B19DA8C0235BA42F1D03389E5
:1037E0003168E31A5B005A520134E6E72900682B7E
:1037F00006D920007C21693804F088FD0431490095
:10380000029B5A5AE8E7C046FFFF0000010010B5CE
:1038100021240300054820311A78002A02D0013300
:103820008B4200D110BD60435040F5E70515000004
:1038300030B51C00194B85B09A4220D0130721D017
:1038400080239B019A421FD8130200228A5E052121
:1038500002AD009101951231FEF73DFF00280FDB0C
:103860002B79DA0712D45AB2002A11DA9A0711D446
:103870005B0711D56B88A34202D0094800E00948D4
:1038800005B030BD0848FBE70848F9E70848F7E706
:103890000848F5E70848F3E70848F1E7FFFF0000AC
:1038A000E2D8FFFFE1D8FFFFE0D8FFFFDFD8FFFF3E
:1038B000E4D8FFFFECD8FFFFEBD8FFFFE5D8FFFF10
:1038C000F0B50C001F49060061181F488FB089B27F
:1038D000149D814233D8013312031B029B182E2200
:1038E00002AF00920197002215213000FEF7F3FE8F
:1038F000002824D17B88002B21D179223B79934366
:10390000802B1CD1A868002808D01521694404F038
:103910002BFE002802D10D480FB0F0BD28886104AD
:10392000490C81420BD36B888B4208D3081A696813
:1039300004F066FC736A18180378013303700448B6
:10394000EAE7C0460080FFFFFE7F0000D9D8FFFFF6
:10395000AAD8FFFFF0B515001E0095B01A9F02907F
:103960000391002F02D1380015B0F0BD3C00402F6C
:1039700000D9402404AB019300943300039A0B2137
:103980000298FEF7A8FE0028EEDB04AB019300943A
:103990002B00039A0F210298FEF701FF0028E3DBBA
:1039A0003F1B36192D19DCE7F0B514000F228DB03E
:1039B000069312AB1B8806000B93C3680F005A4393
:1039C0000792026A09920E2C00DCA4E00137BFB214
:1039D000BB4251D900243B030393079B002B4FDDCF
:1039E0007F22E31713401B19DB11DA010592099AB4
:1039F0001B02D31A0493039A099B14219B18049A5F
:103A000030009B1A0A93336A0022019380235B00E3
:103A100000930A9BFEF75FFE2500079B0290089328
:103A2000089B2C000793029B002B05D1059BEB1AEA
:103A30007F2B01DC0E2D28DD059B80330593049B35
:103A4000013BFF3B0493029B002B02D1059B802B83
:103A5000D1D10137F368BFB29F4255D280225201C3
:103A60009446039B634403930024029BA342B4D077
:103A7000029B002B06DB03E00424069B1C404DD078
:103A8000294B029302980DB0F0BD0122069B134210
:103A900005D0049A6B00D35A0B9A93422FD1169BF0
:103AA000002B00D01F80179B002B00D01D60139BA4
:103AB000002BE7D00222069B0B99134202D1049AF5
:103AC0006B00D15A159B3A000193149B3000009370
:103AD000139C2B00A047154BC318012B21D8144B66
:103AE00098420CD1336A0022019380235B0000933B
:103AF00014210A9B3000FEF7EEFD002811DB089B25
:103B00000135013B08938BE70423069A1340B7D194
:103B100003931F00A8E70B0303935EE703942700BA
:103B20005BE70290AEE7C046A8D8FFFF572700002A
:103B3000A9D8FFFFF0B504000D030F00802185B068
:103B40004901A36828009847636B2200013363632F
:103B500002262B0042320192FE33009600221921E8
:103B60002000FEF71CFE00281ADBE3680E22DB1B98
:103B70000D4F6A445F402B001780FC330192009682
:103B8000002219212000FEF70AFE002808DB80220F
:103B90000434E38F120201339BB2934202D0E387D5
:103BA00005B0F0BD0023FAE729040000F0B50027B6
:103BB00004008BB03B4D08AB1F80079508AE3388DF
:103BC000E268934224D3384A7B1B0135934200DCE0
:103BD0007D1C231DADB2DD87079B1A00314B9A4235
:103BE00058D1002509AB0593304B65630193A5635C
:103BF0002B00E56304960395029500952A002900A1
:103C00002000FFF7D1FE2A4B984241D128003FE027
:103C10001A2202A95218019202221B030092FC33BD
:103C2000002215212000FEF756FD002830DBE26857
:103C30003388D11A1F4A4A4002A9498B92B2914255
:103C400005D0079A1100174A914220D1079302220A
:103C50001B0309AE0092FE330196002215212000BD
:103C6000FEF739FD002813DB33880E4A934209D052
:103C70001A1CAB4200D92A1C95B21A1CBB4200D2B6
:103C80003A1C97B208AA13880133138096E70A48B2
:103C90000BB0F0BD07992000FFF74CFF0028A0DA19
:103CA000F6E7C046FFFF0000FF7F00001D37000061
:103CB000A8D8FFFF29040000D7D8FFFF10B586B0B1
:103CC000099C00930594089C012304940024039408
:103CD00002940194FFF768FE024B984200D102481B
:103CE00006B010BDA8D8FFFFEED8FFFFF0B51E004C
:103CF000030085B0039240330F00197804000A9D39
:103D000000290BD001950096124B039A3900200030
:103D1000FFF7D4FF002810D005B0F0BD436B012B96
:103D2000F0D8FEF70FFE0C4B984201D00028F3DBD1
:103D3000636B012BE6D80948EEE7338823822B68B2
:103D4000013363612B68002BE6D1636B013B636336
:103D5000E2E7C046FFFF0000D3D8FFFFEFD8FFFF28
:103D6000F0B51E278BB06F4407AE3A803380040055
:103D70000D00C269018B0020834200D03000222652
:103D800009AB05930F4B6E440290019304960123F7
:103D9000039700952000FFF707FE0B4B98420FD0CA
:103DA00000280BDB109B3188099A002B04D00B01F3
:103DB0009B18109D01332B802183E2610BB0F0BD75
:103DC0000248FBE719350000A8D8FFFFEED8FFFF37
:103DD000F0B50E27122689B0039310AB1B7815009F
:103DE000049302ABFF183980F61807AB018A0093E1
:103DF000426933000400FFF779FF002867DB33884E
:103E0000079A1B0352009B1802220197009204217B
:103E100000222000FEF7C3FC002858DB0122A36B20
:103E200007210133A3632B79200093432B71079B58
:103E30009B1832881B0212039B18052201950092E1
:103E40000022FEF7ACFC002841DB039B002B13D0C3
:103E5000079B3288013312031B029B180F9A05330C
:103E60009B18039A072101920E9A200000920022CB
:103E7000FEF795FC00282ADB049B002B1AD00222B7
:103E80002B79134216D0934302A910322B7152188A
:103E9000079B1288013312031B029B180122043571
:103EA000009204330195002207212000FEF777FCE1
:103EB00000280CDB119B002B09D0122302AA9B18AF
:103EC0001B88079A1B01D318119A0133138009B07C
:103ED000F0BD00007FB50E2200260F230C006A44BF
:103EE0001680019202220B40114900925B182109B1
:103EF00009035B005B18320031000500FEF74FFC40
:103F0000B04213DBEB6B0D220133EB63AB6B6A4406
:103F1000013BAB637E2313700192012224020092C5
:103F2000231D320003212800FEF739FC04B070BDC8
:103F3000FFFFFF7FF0B589B015000EAA039102CAFA
:103F400012241288029104920E2202A952181380A0
:103F500007AB6418018A0093426923000600109F92
:103F6000FFF7C4FE00285FDB2488079B24011C198F
:103F70000134A4B2002F00D03C802702002D1ED1B6
:103F80008022049B52001B02009203993A003000E9
:103F9000FFF7E0FC0023029D029324E003222B792B
:103FA000043593432B70023A00923B1D0195039A0E
:103FB00007213000FEF7F3FB002831DA34E001225C
:103FC0002B79100059089343921813432B718023C7
:103FD00088435B000290009301953B00002207217B
:103FE0003000FEF7DCFB00281EDB0F230F4A2340C6
:103FF0009B180E2202A952180192022224095B008A
:10400000240300921B19002204213000FEF7C7FB95
:10401000002809DBB36B0133B363029B002BBDD1D6
:1040200004993000FFF756FF09B0F0BDFFFFFF7F96
:10403000F0B587B004930CAB1B88070000930DAB61
:104040001B8815000393049B05915B045B0C029392
:10405000836A1E1D002334000193FB6A019A934278
:1040600008D8012D00D86EE03C6D002C00D06CE02B
:1040700007B0F0BD434A63881340029A934238D197
:10408000009B002B2BD1022D38D0A38C002B30D0DD
:104090006B469B8923810E9B002B20D00E9A636078
:1040A000E169009B013209D00E9B002906D0CA6845
:1040B0000B8A9B180E9A934200D2130022699A42EF
:1040C00000D9236162699A4200D96361002906D050
:1040D000CA6801339A4202D93800FEF7B9FBA389B6
:1040E000009A934205D10023022D01D06B469B8993
:1040F0006381019B303401330193AEE70022A35E5C
:10410000002B05D0E169002902D03800FEF7A0FBA2
:10411000002323806380E2E70022B35E002B0CD0F3
:10412000B06A002809D0174A73881340029A934254
:1041300003D1059A0099FFF709FB01343036FB6A79
:10414000A342E9D890E70024F9E7009B002B00D0B8
:104150008EE76B4610229B5E002B00DB88E7009900
:10416000012D08D0002D0BD0EB1E012B08D9290002
:10417000022D00D07CE7039B029A3800A04777E726
:104180000121F8E7FF7FFFFFF0B5162797B01CABC2
:104190001B780400069302ABFF183980FB210592BF
:1041A000FEF732FF051E65DB3A88344B20001343CF
:1041B0003B8009AB00931A2302AA9B18218A6269EB
:1041C000FFF794FD051E55DB02AB5B8B099A1B03C1
:1041D00052009B1802220197009204210022200025
:1041E000FEF7DDFA051E45DBA36B0AAE0133A363C0
:1041F0003B882D20338000237380F83333716B4666
:10420000197E02AB3173012149420C91202205999C
:10421000C01804F0BAF909980721431C02A8428B80
:104220001B0212039B182E220196009220000022EE
:10423000FEF7B5FA051E1DDB012149423B880291BC
:1042400002A94A8B099912018A18013292B201928D
:1042500000223100009220000132FFF7E9FE1D9B91
:10426000002B07D002AB5B8B099A1B01D3181D9A58
:1042700001331380280017B0F0BDC0460080FFFF57
:10428000F0B589B0059380230E9C1B021A430600EB
:104290000F000492002C0ED104217A5E416A059B26
:1042A00001918021490000911B02EA39FEF713FABF
:1042B000051E4EDB746A2379DA074DD45AB2002A00
:1042C0004CDA9A074CD45B074CD46388002B4BD153
:1042D0000F9B002B05D02000202219000D3004F088
:1042E00054F9119B002B03D02381119B1B0C63817C
:1042F000391E01D00423F95E162302AA9B180293EB
:10430000059B22000193002330000093049BFFF7DC
:1043100011FE051E1DD102ABD98A129B002B00D0C5
:1043200019800E9A208953425A41638901911B04D6
:10433000034302936388920000932100049B3000A2
:10434000FFF776FE002F04D0162302AA9B181B88C5
:10435000BB81280009B0F0BD044DFAE7044DF8E731
:10436000044DF6E7044DF4E7044DF2E7E4D8FFFF0F
:10437000ECD8FFFFEBD8FFFFEAD8FFFFE3D8FFFF41
:10438000F0B593B003930D000B0214000421525EAC
:104390002E2106AE0091019618390700FEF79BF911
:1043A000002833DB0F232B402A09013B12035B005B
:1043B0009B180E2202A95218019202221421009287
:1043C00038000022FEF787F9A5812760B3686A46A6
:1043D000A36000236361238202ABE581DB899589B9
:1043E000E380A5833279D4070FD451B200290FDAC4
:1043F00002210A420ED152070ED41BB2002B0BDA57
:104400007388002B02D0054800E0054813B0F0BDCA
:104410000448FBE70448F9E70448F7E7E3D8FFFF5F
:10442000E4D8FFFFECD8FFFFEBD8FFFFEAD8FFFF8F
:10443000F0B595B00E9307680D000E9983680600DD
:10444000FB3138000F920693FEF7DEFD041E00DA02
:104450000BE2069B0A93AB4200D90A957B6AB289AC
:10446000069310AB1A80FB210A9803F0C9FEFB21CA
:1044700083B20A98099303F049FF4E4B0C910B93BA
:104480000023079308939C4200D12EE10A9A089BCF
:10449000944663440993B36073616B469B8B10AD84
:1044A0002A883382079BF281002B00D126E231005B
:1044B0003800FFF769F8002831DB0421725E796A61
:1044C0002B8801918021490000911B02FA393800A4
:1044D000FEF765F9002822DB002202922A8806985E
:1044E0000192C278817812020A430092F388002276
:1044F000796A3800FFF79CFD1A210AA8091804916F
:1045000000210998B389F2880390029101910091EA
:1045100038003100FFF7B4FE002800DBA5E10400FD
:10452000A3E11A2003910AAC0B990019049002919F
:104530000191796AB389F288009131003800FFF760
:104540009FFE11E110AD2A880B9B31003800FFF768
:104550001BF8041E00DA88E10421725E796A2B8858
:1045600001918021490000911B02FA393800FEF7C1
:1045700016F9041E00DA78E1002402942A88F388F0
:104580000192069A38009178D27812020A4300927A
:10459000796A2200FFF74CFD1A210AA80918049134
:1045A0000A980899B3890918F28803910294019432
:1045B0000094C2E7FFFF0000B368581EC64B984244
:1045C0000FD9089B002B0CD1FB2103F019FE7C2195
:1045D000693803F015FE079B013080B2834200D892
:1045E000FBE08023F1881B0219436B469B8B12ADC5
:1045F0006B80F9232B7110AB298003930123029365
:1046000000232A00019300933800FFF7E1FB041E0A
:1046100000DA2AE18022FF215200786A03F0E1FEED
:1046200005222900786A03F0D3FE002202920AAA2A
:10463000128BF3880192079A38000092796A01225E
:10464000FFF7F6FC10AB1B880A9AF3816B469B8B35
:104650003382089B9B187361B360079B0B93089A86
:104660000E9B0C999B1AFB22521A0D929A4200D96A
:104670000D930C9B002B00D0FAE06B469B8C12AA8A
:10468000F1885380FD23089813710F9B4904490C4E
:104690001B1811A811800390012002900C98019022
:1046A0000D9800903800FFF793FB041E00D0EDE654
:1046B00011AB1D88079B002B00D011E1099B069AC6
:1046C00017335B009D520A9A089B9B18069A138128
:1046D0001B0C53810D9A09989446013083B20993BB
:1046E000089B6344089300230C93089B0E9A934203
:1046F00000D3CBE600230793099B682B07D918004A
:104700007C21693803F07CFD013083B207930B9B59
:10471000079A9342A3D0089B002B2DD00B9B002B14
:1047200000D00FE7089B0A9A9918069B069A1981F0
:104730000B0C53810A9B002B00D0F2E610AD2A88A7
:1047400031003800FEF720FF041E00DA8DE004215E
:10475000725E796A2B8801918021490000911B02C9
:10476000FA393800FEF71BF8041E00DA7DE0089BDA
:104770000A9A9B18B3607361079B002B00D01BE75C
:104780000421725E796A10AB1B8801918021490077
:1047900000911B02EA393800FDF79DFF041E64DB1F
:1047A0000122069B1B79134200D0E9E05AB2002A8D
:1047B00000DBE7E09A0700D5E6E05B0700D5E5E01F
:1047C0000622B35E002B00DBE0E0069B5B880B93C8
:1047D000002B00D143E7414C47E0338A079A9342CC
:1047E00034D11E23F2890AA95B181A801E250AAB50
:1047F0000421725E796AED182B88019180214900AD
:1048000000911B02EA393800FDF765FF041E2CDB1E
:104810000122069B1B79134200D0B1E05AB2002A54
:1048200000DBAFE09A0700D5AEE05B0700D5ADE056
:104830000622B35E002B00DBA8E0069B079A5B888C
:104840009342C8D12A8810AB1A80FBE68023F188F6
:104850001B0219431E230AAA9B180093079A089B60
:104860003800FFF77DFA041EC0DA200015B0F0BD55
:10487000079B002B21D1099B069A17335B009A5A9C
:1048800011AB1A8011AD2A88311D099B3800FEF743
:10489000CFFF041EE9DB2B880C9A1B020533089816
:1048A0009B180421725E0F99091801910D99380027
:1048B00000910721FDF773FFF7E6099B191D682B8F
:1048C00005D909987C21693803F020FD0431069B45
:1048D00049005A5AD4E7C046F2660000E3D8FFFF09
:1048E000099B191D682B05D909987C21693803F0AB
:1048F0000DFD0431069B49005D52EBE60A9B002B3F
:1049000031D16946069B098C38001981089B0699AC
:104910001B0C4B810A9B3100FEF736FE002800DAA3
:10492000FDE50421725E796A2B880191802149009E
:1049300000911B02FA393800FDF731FF002800DA38
:10494000EDE5069AF38811895289380012040A436A
:1049500002922A880192069A52880092796A042269
:10496000FFF766FB81E71A210AA809180491099943
:10497000B38903910799F28802910191796AC6E59A
:10498000034C72E7034C70E7034C6EE7034C6CE793
:10499000E4D8FFFFECD8FFFFEBD8FFFFEAD8FFFF1A
:1049A000F0B595B00D91190005680700FB3128009E
:1049B0000F920E93FEF728FB041E00DA6EE16B6A7D
:1049C000FB210793BB890D980B9303F019FCFB2186
:1049D00083B20D98089303F099FC00230A91C14E0D
:1049E000069309939C4200D12CE10D9A099B9446B1
:1049F00063447B616B469B8DFB816B461B8B3B82CB
:104A0000069B002B00D1F4E10B9A39002800FEF739
:104A1000BBFD002800DAFFE10422B95E1E22002659
:104A20000AA81218FB8802920B9A0096019228009D
:104A3000079AFFF77FFA0AABDA8B6B461B8BFA817A
:104A40003B82B04200DAE7E1FB880192079A0296C6
:104A50009178D278280012020A4300920799320016
:104A6000FFF7E6FA1AE10023069333000B9A3900A8
:104A70002800FEF789FD041E00DA0FE10422B95E6A
:104A80001E2200260AA81218FB8802920B9A009692
:104A900001922800079AFFF74DFA0400B04200DAAD
:104AA000FCE0FB880AAA0296D28B28000192079AA2
:104AB0009178D27812020A43009207993200FFF7E8
:104AC000B7FA069BB34229D104217A5E696A0B9B2F
:104AD00001918021490000911B02EA392800FDF76D
:104AE000FAFD041E00DAD9E0079B1B79DA0700D52E
:104AF00094E15AB2002A00DB92E19A0700D591E1D5
:104B00005B0700D590E10622BB5E002B00DB8BE14A
:104B1000079B5B88002B39D0734CBFE03B8A069A19
:104B2000934200D0BDE01E23FA890AA95B181A80BF
:104B30001E2604217A5E0AAB696AF6183388019151
:104B40008021490000911B02EA392800FDF7C3FDCE
:104B5000041E00DAA2E0079B1B79DA0700D55DE1AD
:104B60005AB2002A00DB5BE19A0700D55AE15B07E5
:104B700000D559E10622BB5E002B00DB54E1079B08
:104B8000069A5B889342C7D133880B936B469B8D03
:104B90000D9AFB816B461B8B3B82099B9B187B61AB
:104BA000099A0E9B0A999B1AFB22561A9E4200D91B
:104BB0001E00069B002B00D084E0089B079A173349
:104BC0005B009B5A0C93002306936B461B8C12AA26
:104BD000F9885380FF23490413710A9B490C118003
:104BE000002B00D082E0FB2E00D07FE009980F9BC5
:104BF00000961B1811A80390012002900A980190BA
:104C00002800FFF7E5F80C992800FFF763F9041E68
:104C100000D0EAE611AB1B880A93069B002B00D05C
:104C2000D7E06946089B079A1733098D5B009952B4
:104C30000898013083B20893099B9B1909930023BC
:104C4000069E0A93099B0E9A934200D3CDE6089BD9
:104C5000682B00D8F5E018007C21693803F0D0FA01
:104C6000013083B206939E429AD0099B002B00D15B
:104C700054E7002E00D0F8E61A210AA80918BB89CB
:104C8000FA880394029401940491696A28000091BF
:104C90003900FFF7F5FA041E00DB3FE7200015B0EE
:104CA000F0BD8023F9881B0219431E230AAA9B1812
:104CB0000093069A00232800FFF752F8041E00DB39
:104CC00036E7EBE7089B191D682B05D908987C216E
:104CD000693803F01BFB0431079B49005B5A0C93B6
:104CE00073E7C046FFFF0000E3D8FFFF391D089BB4
:104CF0000C9A2800FEF79CFD041ECFDB11ABF9884F
:104D0000039300234904490C02930193009312AAD0
:104D10002800FFF75DF8041E00D066E60A9B002B12
:104D20002ED10A9B9819FA283BD90AAB9B8B0A9A79
:104D30001B02053309989B1804217A5E0F9900968F
:104D40000918019128000721FDF729FD041E00D054
:104D50004BE6022112AA137928008B431371042118
:104D60007A5E0AAB13A99B8B019101211B02009172
:104D700004330631FDF713FD041E00D143E734E68A
:104D80000AAA928B0C9B0420395E0A981B0212021D
:104D90000090053305322800FEF7DCFD041EC0D06C
:104DA00023E60A9B0C9A053312029B199B1811AA41
:104DB00012880A991202053252180424395FFB2422
:104DC000201A009092192800FEF7C4FD041EACD0F2
:104DD0000BE6089B191D682B05D908987C216938BA
:104DE00003F094FA04316A46079B128D49005A5227
:104DF0001EE71A210AA80918BB89FA8804910699A6
:104E00002800039102910191696A00913900FFF72E
:104E100037FA002800DB41E704003FE70D4C3DE78F
:104E20000D4C3BE70D4C39E70D4C37E7099A0E9BCB
:104E30000A999B1AFB22561A9E4200D8BDE61E0014
:104E4000BBE6002EF2D0099B002B00D00BE60693A8
:104E50003AE6C046E4D8FFFFECD8FFFFEBD8FFFFEF
:104E6000EAD8FFFF70B588B007AB1A260400059397
:104E70000800002315000F4A6E440393029001922C
:104E80000093218B0496E2692000FEF78DFD0A4B0A
:104E900098420DD0002809DB3188079A002D03D0F5
:104EA0000B019B1801332B802183E26108B070BD98
:104EB0000248FBE721360000A8D8FFFFEED8FFFF2D
:104EC000F0B5836893B0013B04000B91079206682C
:104ED000033300D8D6E00025AA4200D1DEE01A2331
:104EE000A58908AAA7689B181D80002F00D0D8E0CC
:104EF0000697736A0893079B002B13D00B9B002B1C
:104F000010D110A9B8330B70019101212D022B1D76
:104F10000420225E009130000531FDF740FC051EA3
:104F200000DABBE09F4B0C93002309930B9B9F423D
:104F300000D8FDE0069B682B00D814E218007C2105
:104F4000693803F05DF9013083B20A930A9A0C9B29
:104F5000934200D10EE20C9B1A00924B9A4229D048
:104F600008AB5A8B21000C9B3000FEF70DFB051E91
:104F700000DA93E008AB598B3000FEF7ABFF051E5B
:104F800000DA8BE0002108AA0291528BE38801929B
:104F9000089A9078D27812020243009230000222DE
:104FA000FFF746F80C9B002B04D0079B002B00D189
:104FB00082E0A7600A9B002B00D08EE0A2891A3302
:104FC00008A95B181A800421625E716A08AB5B8BCA
:104FD00001918021490000911B02EA393000FDF760
:104FE0007AFB051E5ADB089B1B79DA0700D5B0E176
:104FF0005AB2002A00DBAEE19A0700D5ADE15B07AB
:1050000000D5ACE10622A35E002B00DBA7E1089BE4
:105010000A9A5B880993934200D0A2E108AB5B8BAC
:105020006761E3816B461B8D2382002A00D065E017
:10503000069B089A17335B00D3181A880D92012239
:1050400052421A8000230C9309930B9B211D002BC5
:1050500007D0079B002B04D10B9BFB1AFA2B00D81F
:10506000A6E0069B0D9A3000FEF7E2FB4E4B9842FD
:1050700059D1FB21380003F049F9002900D189E01A
:105080007F1A88E0079B002B00D028E7FB21300027
:105090004900FDF7B9FF051E00DB20E7280013B02B
:1050A000F0BD781EFB2103F0ABF883B206937B1CA6
:1050B00000D01EE700271CE70FA904910799A389D8
:1050C000029101910091E288039721003000FFF7DF
:1050D000D7F8051E00DB6CE7E0E78023E1881B02C0
:1050E00019431A2308AA9B1800930A9A0023300038
:1050F000FEF736FE051E00DB65E7CFE7069B191DB0
:10510000682B05D906987C21693803F0FFF8043133
:10511000089B490059180B880D9301235B420B80B3
:105120000A9B0C9391E700282CD0204B9842A0D0EA
:1051300008AB5D8B099B002B00D0CFE0002F00D087
:10514000C4E0079B002B00D1A7E02A003B00210010
:105150003000FEF719FA051EA0DB08AB598B3000B2
:10516000FEF7B8FE051E00DA98E7029708AA528BF0
:10517000E38801920097022239003000FEF758FFC1
:10518000A7608BE70D993000FEF7A4FE002800D140
:105190006FE7CDE7FB3F0698A760013883B26761F0
:1051A0000693C3E6FFFF0000ECD8FFFFE1D8FFFF46
:1051B000069B0D9A3000FEF73BFB0028B8D16A46EB
:1051C000E188128B490408AB490C5A841984FF23E7
:1051D000243008AA1218137008AAE13B9B18039305
:1051E000079B10AA0293019300933000FEF7F0FD95
:1051F00000289DD10D9BFB211B0205330A930B98C0
:1052000008ABDD8B03F082F82D02053500910A9B77
:105210002A0007993000FEF79DFB002800D087E7A1
:105220000D993000FEF756FE002800D080E72421BB
:10523000022208AB5B181B783000934308AA52186F
:1052400013700421625E08AB11A9DB8B019101216F
:105250001B02009104330631FDF7A1FA002800D0AB
:1052600066E708ABDD8B099B002B09D10698173048
:10527000089B40001D520B9BA36063611F0057E712
:10528000069B682B02D818000430F1E706987C21B1
:10529000693803F03BF8081DEAE7706AD2222E3025
:1052A000FF2103F09EF80FAB04930123E2885B42D9
:1052B000039302970197736A00932B00210030003B
:1052C000FEF7DEFF051E00DB5AE7E7E60FAB0493AF
:1052D000099BE288039702930193ECE72A00099B5C
:1052E00021003000FEF750F9051E00DAD6E6002551
:1052F0000422A15E10AA029208AA528BE3880192AE
:105300000095089A3000FEF715FE051E00DAC5E686
:10531000002508AA0295128CE3880192089A3000B1
:105320009178D27812020A43009208992A00FEF777
:105330007FFE08AB1B8C0FA9E3816B469B8C6761DA
:105340002382E288A3890491039702950195009531
:10535000B4E70A4DA2E60A4DA0E60A4D9EE60A4DC4
:105360009CE60A4D9AE600230A930C9B002B00D082
:10537000F1E55DE60A9B0993C4E6C046E4D8FFFF69
:10538000ECD8FFFFEBD8FFFFEAD8FFFFE3D8FFFF21
:10539000F0B58FB00791089303680400FB210798CC
:1053A00004930B9202F02CFF87B20020049B5B6AEF
:1053B0000693079B03936B4B05930B9A079B9446AD
:1053C000039A63440A9393423AD9E26A002A0CD0C2
:1053D0001389BB4209D85189B94206D3FB1A126816
:1053E0005B009D5A002D00D082E0682F3DD9380027
:1053F0007C21693802F004FF059B013085B2AB4285
:1054000006D138007C21693802F080FF04311CE0AD
:10541000238AAB4205D10E23E2890AA95B181A80C0
:105420002CE08023E1881B0219430E230AAA9B1853
:1054300000932A0000230498FEF792FC00281DDA4E
:105440000FB0F0BD391D682FDBD8069B49005D5AAF
:105450004EE04548F4E74548F2E74548F0E745485F
:10546000EEE74548ECE74548EAE7059B002B38D0D6
:105470000E230025A2890AA95B181A800E26042192
:10548000625E04990AAB496AF61833880591019166
:105490008021490000911B02EA390498FDF71BF9AD
:1054A0000028CDDB0122069B1B791342D1D15AB2D1
:1054B000002AD0DA9A07D0D45B07D0D40622A35EA4
:1054C000002BCCDA069B9A78DB781B0213430593FA
:1054D000AB42C6D1039B258263613388E381002DF3
:1054E000B0D13B00069A17335B009D5A0023059309
:1054F000FB21039802F00AFF0A9B039A09919A1A6A
:105500000399A3685B1A934200D91300FB26099AFA
:10551000B61A9E4200D91E00002EA4D0211D3B00C9
:105520002A000498FEF784F9002800DA88E7099B2E
:105530000421625E08992D0205330191EB18009653
:1055400017210498FDF7C7F8002800DA78E7089BD0
:1055500001379B190893039BBFB29B1903936361A7
:105560002BE7C046FFFF0000E4D8FFFFECD8FFFFA9
:10557000EBD8FFFFEAD8FFFFE3D8FFFFEDD8FFFF2E
:10558000F0B50F238DB0069101210792C268050086
:1055900053435B0809AA5B18118099B21B043CD4E1
:1055A000518000235360079B936009AC2388686A8D
:1055B0009C46624663889B1A80221201934237DC24
:1055C00080220021520002F00CFF0021079B059170
:1055D00002933D4B0491019303940B0000910A0048
:1055E0002800FEF7E1F9394B984201D0002812DB80
:1055F0008026002201236F6A7600BD5CFF2D12D049
:1056000000212800084118400AD12388D2005918E7
:10561000069B8A181A800DB0F0BD2D4B5380C0E751
:1056200001310829EDD10132B242E6D12948F2E731
:105630006268002A1DD109AC2288638800269B1A63
:1056400080221B0A52000021636002F0CAFE224B36
:105650000596019304963300039602940096320057
:1056600031002800FEF7A0F9184B984226D1A66019
:105670009BE70027FF233900465C9E4202D2331E7F
:1056800006D00F00802601317600B142F4D13900F6
:105690009A42CBD092B25143614489B2002B03D1DC
:1056A000069A18001180B6E78023521892B26280E1
:1056B0002180521A1B019A42BDDC76E70028AADB42
:1056C000A66000D171E7A6E785360000A8D8FFFFE5
:1056D000FF7F0000EFD8FFFFC1380000F0B585B0B4
:1056E000050003911400101E01D0FEF78FF8EB6A3D
:1056F000AE6A0293002C07D030230299321D4B432F
:10570000F318043393420ED12A4A01230192002256
:10571000311D5B420092029F009ABA420ED15A1C80
:1057200021D125483BE00027D15F002904D1918C8D
:10573000012901D9013991843032E3E700228F5EDB
:10574000002F0AD1002C02D00F6A87420AD08F8C1A
:10575000019A974201D2009B0197009A30310132A1
:105760000092D8E7009B30225A43B618002C11D083
:10577000726A824219D1318D002916D0B28910097E
:1057800028830F200240013AEA610C4A914208D86E
:105790000431318500200133B380039B1E6005B0C6
:1057A000F0BD012252423285F4E704227062328554
:1057B000F0E7C046FFFF0000E9D8FFFFFAFF000056
:1057C000002910DD2C22835E8B420CDB30234B43FF
:1057D000816A303BC91804228B5E002B05D0002063
:1057E0008880C86270470248FCE70248FAE7C04672
:1057F000E6D8FFFFE8D8FFFF10B5002911DD2C2403
:10580000035F8B420DDB30235943836A30395918CB
:1058100011600423C85E43425841034B4042184084
:1058200010BD0248FCE7C046E8D8FFFFE6D8FFFFFE
:1058300070B506000C008D18AC4207D03368217893
:105840009B683000984720700134F5E770BD7047C1
:10585000704710B50400406800F0CCFA00232376AE
:1058600010BD10B5406800F0EAFA10BDF8B50500AB
:1058700040680C0000F0DEFA2B68E7B2260A9B684D
:10588000012810D139002800FF2798472B68BC4316
:1058900004439B68310028009847030220003840E9
:1058A000184380B2F8BD310028009847FF262B68C6
:1058B0000002344004439B68390028009847B443F1
:1058C0002043EEE710B5040002F00CFA200010BDF2
:1058D00010B54B1C0BD0102909D0EFF3108472B611
:1058E000102905DD02234376002C00D162B610BDDD
:1058F0000123427E1A43427618224A4304498918FA
:1059000016228A569340C2691343C361ECE7C0462E
:10591000E08600004B1C17D0102915D0437E9B0752
:1059200012D4EFF3108272B618234B430749C918FB
:105930000123897D49B28B40C1699943C16100D17E
:105940004176002A00D162B67047C046E08600006A
:10595000437E002B05D09A0704D5837E002B00D010
:1059600062B67047DB07FCD5C369024A9BB2D360BD
:10597000F7E7C04600180040037E002B04D14376B1
:105980008376C36101330376704700007FB50369F6
:1059900002AE04000D00029172608B4203D1828A34
:1059A000B3889A4226D0200006223100103002F03F
:1059B0000FFD606800F035FA7379E17A013B581EFB
:1059C0008341227B00936068002300F083FB3379DE
:1059D0000021013BDBB2022B01D8074AD15C074B07
:1059E0002A009D4200D91A00606800F0EBF9606857
:1059F00000F00DFA7FBDC046A1860000001BB70075
:105A000070B518260400FFF7B7FF33000821207A8D
:105A10000D4D4343EB18595602F032FB3300082179
:105A2000A07A4343EB18595602F02AFB0821607A0A
:105A30004643AD19695602F023FB044B200006CB08
:105A4000FFF7A4FF70BDC046E0860000900800206C
:105A500007B5437E00910192002B07D09A070AD523
:105A6000EFF310835A425341837672B60099019A3C
:105A7000FFF78CFF07BDDB07F8D5C369014A9BB26E
:105A80009360F3E700180040F7B500240125194B97
:105A9000194A5D711A601C71184B1948083301933B
:105AA0000360184B184F4360184B194E03810923AC
:105AB0003A0031004575046104758372063B047633
:105AC000C472037302F08AFB1248134B019A4360BD
:105AD000124B4575038125233100026004613A00B1
:105AE00004758372223B0476C472037302F076FB62
:105AF000F7BDC0469008002000093D00A4860000C4
:105B000050080020280D0020000000200A08000096
:105B10005158000070080020400D0020262400008D
:105B200070B5304C3049200000F0FAFA200000F047
:105B3000A0F903210B2002F0A3FA03210C2002F0AC
:105B40009FFA00226B21200000F0D0F900280BD032
:105B50000121200000F00CFA1B21200000F008FABF
:105B60000321200000F0ACF9642002F067F8002265
:105B70006B21200000F0BAF9002813D100226B211C
:105B8000200000F0B3F9002828D00121200000F007
:105B9000EFF90B21200000F0EBF90321200000F0C9
:105BA0008FF91BE00821200000F0E2F9032120001A
:105BB00000F086F901226B21200000F097F90028FF
:105BC000DCD0200000F0ECF90500200000F070F9B6
:105BD0000321200000F074F92B07CFD5200000F03E
:105BE0005DF970BD300D0020A086010010B502489F
:105BF00001F0DBFD10BDC0469808002010B502483A
:105C000001F0D3FD10BDC046DC0A002073B5174972
:105C1000174800F047F81749174800F043F81749AC
:105C2000174800F03FF81749174800F03BF8174CA9
:105C30001749200000F036F8164E1749300000F0E2
:105C400031F8032501233100019300950D330D2216
:105C5000124801F023FD0023009501931D221A3301
:105C600021000F4801F01AFD73BDC0460008004234
:105C7000200D0020000C0042280D002000100042E2
:105C8000300D002000140042380D0020400D00208F
:105C900000180042480D0020001C00429808002017
:105CA000DC0A002000230371016070479446F0B5C0
:105CB0009E1E721E96416246056892072F68360640
:105CC0003A4332432A60072505AC24780068A401D2
:105CD0002940214342680024022B00D05C03114379
:105CE00021434160F0BD30B5C0250368AD031C6899
:105CF00012052A402243C0240904A4022140114372
:105D0000196003685A6814435C6030BD012302685F
:105D100011680B43136003681A68D207FCD4DA6970
:105D2000D207F9D470470223026811680B4313604D
:105D30000268D3699B07FCD470470268137E9B07F7
:105D400002D40379002BF9D100230371704700229C
:105D500003685A8370470368187E4007C00F704776
:105D60000368187EC0097047802302685B42117E79
:105D70000B43137670470368588B8007C00F70473A
:105D800002230268518B0B43538370470368187ECC
:105D9000C007C00F70470368188DC0B27047036812
:105DA0001A7ED207FCD589B2198501230371180028
:105DB0007047012203689A757047012203681A75BB
:105DC0007047000070B5012604684B08334031402D
:105DD000256809075B070B432B43236004685100C8
:105DE000034802F00DFA0138C0B2207370BDC046FE
:105DF000006CDC020123026811680B431360036826
:105E00001A68D207FCD4DA69D207F9D470470223A2
:105E1000026811680B4313600268D3699B07FCD4C6
:105E200070470368DA699207FCD402211A688A4332
:105E30001A607047036818684000C00F7047026816
:105E4000936A5B0A5B021943916203681A7E5207E8
:105E5000FCD5986AC0B270470123026811680B43F1
:105E6000136003681A68D207FCD4DA69D207F9D440
:105E700070470223026811680B4313600368DA69F4
:105E80009207FCD430215A8B8A43110010220A4316
:105E90005A830268D3695B07FCD470470221026809
:105EA00013688B4313600268D3699B07FCD4704767
:105EB00080230268DB02116851680B43536070470E
:105EC000032230B5036811401C68074D5A68090465
:105ED0002A40E4061143640F5960052C03D102687F
:105EE000D3695B07FCD430BDFFFFFCFF70B50568CC
:105EF00004006B8B9B069B0F022B0DD06B8B00203D
:105F00009B069B0F032B32D06B8B9B0704D56B8BAF
:105F10009B069B0F012B2AD16B6A49001143DB0AB8
:105F2000C9B2DB020B436B622368002A13D11A7ECD
:105F3000D207FCD55B8B9B069B0F022B04D0490834
:105F400000222000FFF7D2FF2368588B4007C30FC1
:105F5000012058400BE0187E8007C00FF4D11A7E54
:105F6000D207F8D5C022596892020A435A6070BD20
:105F70000368283319700268107EC007C30F508B66
:105F8000002B06D1C007C00F08D1538B9B07F3D558
:105F900070474007C30F01205840F9E71800F7E7A2
:105FA00003681A68D206520F052A05D11A7E920795
:105FB00002D41A7ED207F9D528331878C0B27047B8
:105FC0000368214A30B593422FD0204A93422FD004
:105FD0001F4A93422FD01F4A93422FD01E4A93420A
:105FE0002FD01E4A93421FD10E23192201210325CF
:105FF00099401B48C024016099082B40AB40FC35F8
:106000009D4089000918A4000859A843C0259D4057
:106010002B0003430B518023DB011A43114B5A80A1
:106020005A7852B2002AFBDB30BD09231422DDE787
:106030000A231522DAE70B231622D7E70C231722AF
:10604000D4E70D231822D1E700080042000C0042DB
:10605000001000420014004200180042001C0042E0
:1060600000E100E0000C0040F8B504000F0016004D
:106070001D00FFF7A5FF2000FFF748FE1C21BB0015
:106080000B4071072268090C0B43136084232268BC
:106090009375012F1AD11021012E00D008390C4B15
:1060A00069431868C00002F0ABF80722216802407B
:1060B0008B895203DB04DB0C13438B8122680304BE
:1060C0009089DB0C400B400318439081F8BDC0461B
:1060D00020000020F7B50600019308AB1F780D00E3
:1060E0001400FFF787FE3000FFF76AFFC022240587
:1060F00092031440BA070C2717433C43C0270722DA
:10610000BF022D0433683D4025431D60019B31686B
:1061100013401A0080239B0213434B60F7BD00001D
:10612000F8B504000F00FFF74BFF2000FFF794FEC7
:106130001422236879001A600C4B25681E68300011
:1061400002F05EF80A490400300002F059F87D239D
:10615000FA215843C90002F053F8FF23241AE868D3
:10616000053C1C4098430443EC60F8BD200000202F
:1061700040420F000020704770B50F26CB1D01393B
:1061800002003240D5B22C0000093034092A00DD6B
:1061900007341C70013B8B42F2D170BD10B50C006E
:1061A0000B4B1868FFF7E8FF21000A4B083118680D
:1061B000FFF7E2FF2100084B10311868FFF7DCFF02
:1061C0002100064B18311868FFF7D6FF202010BDBC
:1061D0000CA0800040A0800044A0800048A0800067
:1061E00008B4024B9C46103808BC60479D61000013
:1061F000704770473F20704713B56B460268D971EE
:106200000733546819000122A04716BD70B50A264D
:106210000B7892B06E44023305000B703C220021D3
:10622000300002F0DEF8394801AC069038482421ED
:106230000790062020776846364AA1742281364AA4
:10624000364BA281FD3AFF3A8018C1776846233960
:106250000630C17768460730C17702A8C1770720AA
:10626000F277032608316944C87703A9CE77102155
:106270002B366E443170092621851F3169440E701A
:106280000CA9053E0E7033212380022369440B7054
:1062900006360DA90E7022493536A1863B216E4483
:1062A000307010A86274E27702703D3269446A442B
:1062B0000B70137040210022E37023716371A3738C
:1062C00041336B44218719705A702B7DC039A370FC
:1062D000A37263770133DBB2A3776A7D0B200D00D5
:1062E00068441543C5773120684403703A23501C35
:1062F0006B441870412302320A436B441A70210028
:106300004222084800F0FEFC12B070BD10010424C7
:10631000020605240904000001020000080B000029
:1063200007050000AC0D002008B4024B9C46103855
:1063300008BC60470D62000070B5027D0B790C004F
:1063400000259A420BD10B784E78A12B09D1212E32
:1063500005D107221B491C4800F0D4FC0135280058
:1063600070BD212BFBD1202E22D1072215491648C2
:1063700000F00AFC9622134BD200196891421DD1FD
:10638000DB79DB071AD4FA2001F0DAFE00210E488F
:1063900000F0C0FD0125232EE1D1E378A2781B0295
:1063A00013430A4A00210848136000F0B3FDD6E702
:1063B000222EEFD18A78034BDA71DBE701F0CAFEB7
:1063C000E4E7C04614000020AC0D002010000020BF
:1063D00008B4024B9C46103808BC60473963000083
:1063E00010B508220021024801F0FBFF10BDC04695
:1063F0001400002010B5417D006A013100F0FCFA64
:10640000034B1B6801335A1E9341181810BDC04638
:106410001C00002010B5417D006A023100F002FB33
:1064200010BD10B5417D006A023100F0C9FA10BDFF
:1064300070B50D00417D0400130002312A00006A8E
:1064400000F0B6FB002801D10123636070BD00009D
:1064500010B5054C23685A1C04D103685B69984742
:1064600003002060180010BD1C000020074A030034
:10647000106810B5411C03D001235B42136010BDAE
:10648000597D186A013100F043FBF8E71C00002039
:1064900010B501F09DFBF423FF330024984207D987
:1064A000044B0A20DC79631E9C41E4B201F0C6FB78
:1064B000200010BD14000020002070477047704776
:1064C000FA239B0010B583600F4B0022C3820300A8
:1064D000283383610D4B04004260C26118005033C1
:1064E00023610830631D21622060DA778323A36271
:1064F000813BE3628033236301F084FA2100103191
:1065000001F051FA200010BD03020000888A00004B
:10651000022110B5094B1A68437D5B01D318FF3384
:106520009C7A21439972437D0133DBB25B01D3181E
:106530000122FF33997A0A439A7210BD6412002037
:1065400010B502490248FFF7BBFF10BDAC0D00209B
:10655000500D0020704710B5040001F0C3FB20006F
:1065600010BD0000F0B5822919D1C3B2294D5A01DE
:10657000AA189169284C80010C40C021890521434B
:1065800091612649083340187021506128685B01E9
:106590001A5C8A43110030220A431A54F0BD0029C4
:1065A000FCD1C026C1B21B4C4B01E3189A681A4DAE
:1065B000B6052A4032439A60194A800182185A600F
:1065C0000A000727246808325201115DB9430F0001
:1065D0000121394311559F6910493D4040182E4310
:1065E0009E6158617020115D8143080010210143B4
:1065F000115599680B48A2180840802149030143AE
:1066000099609968890B89039960402311790B433C
:106610001371C3E764120020FFFFFF8FD80D002025
:10662000980F0020FF3F00F0EFF310830360012379
:10663000436072B670470368002B02D162B6BFF3A5
:106640006F8F704773B5836D0400002B1BD106005C
:10665000A83635786846FFF7E7FF019BEDB2013BAE
:1066600002D33578EDB2FAE768460193FFF7E3FF0E
:10667000002D01D1002076BD2300A4331868A0347A
:106680002368C01AF7E76846FFF7CEFF220000250F
:10669000019BF432013B02D31578EDB2FAE768466C
:1066A0000193FFF7C8FF002DE4D02300F0331868F2
:1066B000EC34E5E710B5436D4468DBB25A01A2182B
:1066C00091680948083308408021490301439160DB
:1066D00091685B01890B890391602268D31840227D
:1066E00019790A431A7110BDFF3F00F0F7B5436DE9
:1066F0004268DBB2190004000831106849014118F2
:10670000C979C90711D55B01D21893689B049B0C0A
:106710000CD12000FFF7CEFF63681A68636DDBB20F
:1067200008335B01D3187F22DA71F7BDE16D0029D0
:1067300023D12100A4310B6023000125AC33E56592
:1067400068465360FFF770FF260020002100019B80
:10675000A836013BF430F5315A1C33D0357002783D
:106760005F1ED2B20A700A78002A04D12000019379
:10677000FFF7A0FFE8E73B00EEE72100F0310B60F8
:106780000023E3652300603353606846FFF74CFF46
:106790000125260020002100019BF436013BA83092
:1067A000F5315A1C0ED0357002785F1ED2B20A70D5
:1067B0000A78002A04D120000193FFF77BFFE8E765
:1067C0003B00EEE768460193FFF735FFA4E737B5D6
:1067D0006B46DC1D00230D00237001F013F921002E
:1067E00001F09EF82B681818286020783EBD000044
:1067F0000078002810D00121084B1B681A898A43B1
:106800001A810822198B0A431A830422198B0A431E
:106810001A830022024B1A607047C046641200209F
:106820005C12002010B50F4A93699B0B9B03936188
:1068300013680222FF331A729879823A02439A71DE
:106840001A7A9207FCD57F24074A2140937A0800E0
:10685000A3431900802301439172917A5B420B4359
:10686000937210BD641200200050004110B50C005E
:1068700001F0C8F8210001F086F8002804D1034A8D
:1068800093699B0B9B03936110BDC046641200206B
:10689000F8B50D00832A19D1CBB23B4C5A01A2188E
:1068A00091693A48AD010840C021890501439161D1
:1068B000374920686D187021083355615B011A5CF7
:1068C0008A43110040220A431A54F8BD022A55D1C6
:1068D000304A8B009858002802D003685B699847BB
:1068E000F82001F0FBF90400274E2B4B46600360B3
:1068F00040220021083001F074FD22000023A03264
:10690000A3646565E3642365A365E3655360D364AD
:106910001372136013654C3213725372FF222B00F3
:106920001340590171188868184F08330740C02078
:10693000800538438860306807265B01195CAD002C
:10694000B1430E000321314319542300616D606887
:1069500011404901411860334B60616D63680A4022
:106960001B6852019B180122FF33997A20000A43C9
:106970009A72FFF79FFE074B5C51A6E711002800B3
:10698000FFF7F0FDA1E7C04664120020FFFFFF8F74
:10699000D80D0020B00D0020F08A000070B5050071
:1069A0000124064BA200D258002A06D0210028005C
:1069B0000134FFF76DFF0A2CF3D170BD840D002068
:1069C0000B4BCAB20B488901C9185301C31859614E
:1069D00099690832890B89039961036852019A18F1
:1069E0000223D3715179823B0B4353717047C046E8
:1069F000D80D002064120020084B8A00D05810B532
:106A0000002803D003689B68984710BDC9B2044BA7
:106A10004901591888688004800CF6E7B00D002001
:106A20006412002010B50C00FFF7E6FF00280CD020
:106A3000064BE4B21B68083464011C198023627998
:106A40005B42134363710223E37110BD64120020A3
:106A5000F0B51C002A4B85B01B6807000D000292A0
:106A6000002B4AD0274B8A00D058002808D0036852
:106A700022005B68029998470400200005B0F0BD31
:106A80003800FFF7B9FF844204D929003800FFF726
:106A9000B3FF04000121EBB21B4E03935B01019392
:106AA000F21893689B0B9B039360019A33680298DA
:106AB0009B18FF335A7A0A435A72144BA901C9181A
:106AC000220001F085FC002CD7D029003800FFF708
:106AD00093FF0028D1D14021039B326808335B012A
:106AE000D3181879014319710121D971019BD31869
:106AF000FF339A7A0A439A72BFE701246442BCE7E3
:106B00005C120020B00D002064120020980F0020BD
:106B100013B56B46DC1D22000123FFF799FF012806
:106B200001D1207816BD01204042FBE770B5CBB201
:106B3000124A13485C018901891802195160916851
:106B4000104D08330D4080214903294340259160B1
:106B50009168890B8903916001685A018A18167936
:106B60003543157195796D06FCD55B01C918CB7954
:106B7000DB07FCD500198068C0B270BD980F0020FB
:106B800064120020FF3F00F070B50D0000211400DA
:106B9000FFF7CCFFA04200D9200000230349A34205
:106BA00003D0CA5CEA540133F9E770BD980F0020A6
:106BB000F0B51E003A4B85B01B680F000192002B08
:106BC00035D08023DB019E4231D80025354B8A0128
:106BD000D3180293002E2CD0334B1B680393FF2352
:106BE0003B401C0000930834039B64011C19A379EB
:106BF000DB0921D02D4B2E49186801F001FB2D4BEC
:106C00001721584301F0FCFA2B4BE279920713D479
:106C1000DA5D002A01D10138F7D20122DA55009B52
:106C20005A01214B9B189A69920B92039A61012594
:106C30006D42280005B0F0BD00221F4B3400DA552C
:106C40003F2E09D9009B40245A01174B9B188022E4
:106C5000996912060A439A6122000199029801F08B
:106C6000B7FB009BA1045A010F4B890C9B18029A99
:106C70002D195A619A69361B920B92030A439A6145
:106C8000009B039A08335B01D3180222DA71597909
:106C9000823A0A435A71019B1B1901939AE7C04635
:106CA0005C120020D80D002064120020200000207B
:106CB00040420F0070110100CD0D002070B50D0095
:106CC0001C000D4BAE01F61811003000220001F03F
:106CD0007FFBEDB209496D014D196E61AB69084A40
:106CE00020001340AB61AB69A2049B0B920C9B0389
:106CF0001343AB6170BDC046D80D00206412002064
:106D0000FF3F00F0F7B5104B01901B780F00150006
:106D1000002B0CD10D4B16001C78002C09D00C4E0A
:106D20000C4834882018641901F052FB3480280084
:106D3000FEBD002EFBD03A19330000210198FFF769
:106D4000BDFF2418361AF4E758110020591200200C
:106D50005A12002059110020F8B50F001600002427
:106D6000012A26D9100001F01FFB0500380001F0B0
:106D700005FC032302220130400028706B7096420C
:106D80000DD9397800290AD0531CDBB20137A95438
:106D90009E4203D00232EC54D2B2F0E73200290016
:106DA0000548FFF7AFFF441EA041C4B2280001F020
:106DB00005FB2000F8BDC046AC0D0020F0B5002456
:106DC000012685B0184B0F0069461E70050000941F
:106DD000FFF7FDFC154B01A90B806A3BFF3BCB7114
:106DE0005A330B72009B8C7109334B800E4B4E71E2
:106DF00008711C703A00092F0FD00D4F09223E7008
:106E00000C4E280000943480FFF77CFF6946280070
:106E1000FFF7DDFC328808493C702800FFF772FF5D
:106E2000012005B0F0BDC046581100200902000045
:106E3000591200205A1200205911002070B5CE7846
:106E400092B005000C00022E0BD18B79C9792C4829
:106E500009021943FFF7B2FF411E8841C0B212B0C8
:106E600070BD00F0CFFD210000F06EFD002803D0C2
:106E7000C117081AC00FF2E7012E0ED1E279A379EB
:106E800012021A431F49112A13D8D2B2002A10D075
:106E90002800FFF737FF0120E1E7032EDFD1A378B9
:106EA000002B08D1E279A37912021A431649032A6A
:106EB000EBD90A78ECE7022B08D1E279A379120228
:106EC00012491A432800FFF747FFC8E7012B05D1F5
:106ED000E279A37912021A430D49F3E7032BBED1DD
:106EE0004122010001A801F07CFA00F08BFD01A90C
:106EF00000F03AFDE279A37912021A4301A9E1E711
:106F0000AC0D0020328B0000228B00000C8B0000A7
:106F1000268B0000CBB204495B01C9188B699B0B1F
:106F20009B038B617047C0466412002037B5050093
:106F300048780C000B2810D801F058F9061B0F2BCD
:106F40000F404561494C5A5D097801AA002906D1D4
:106F5000022311802800FFF7B1FE01203EBD00236F
:106F60001380284B1B78012B00D1137002230021C2
:106F7000F0E78A780023012A03D101AA1380224B6B
:106F8000F0E7204A1370214A93699B0B9B0393619E
:106F9000E3E78C78012C06D100211B4B01AA1C7061
:106FA00011702300D6E70120002CD7D1154B174ACA
:106FB000187093699B0B9B039361CFE78978280036
:106FC000FFF730FCC9E72800FFF738FFC6E70123C9
:106FD0000F4ACCE70B780020DB06BFD12800FFF773
:106FE000DDFCA2780A4B0B481A60FFF791FACAE75A
:106FF0000123094ABBE78A78074B1A60C3E70020E0
:10700000ACE7C046CC0D0020D40D00206412002057
:107010005C120020500D0020601200203A4BF7B5A2
:107020001E780500002E5FD1384C23689A8B12071A
:107030000DD5082231009A833000FFF793FA102211
:107040002368FF33997A0A439A72314B1E60236892
:107050009A8B520701D504229A83FF331A7A92063B
:1070600003D52022597A0A435A721A7AD20623D5B6
:1070700069460800274AC0CAC0C0A268920B9203A2
:10708000A2604022587902435A7160230A7828008E
:107090001A422AD1FFF74AFF2368FF33002827D07E
:1070A0008022997952420A439A711A7A520603D57C
:1070B0004022597A0A435A727F2601252368FF33FA
:1070C0001E722F00236808377F01DB19DB79002B44
:1070D00007D0114BAA00D05800280DD003681B68B8
:1070E00098470135082DECD1F7BDFFF7BFFBD3E77B
:1070F00020210A4A9171D8E729000948FFF7DFF9F2
:107100002368DF19FE71ECE7591200206412002099
:107110005C120020980F0020B00D0020FF500041AD
:10712000500D002010B50248FFF778FF10BDC04693
:10713000AC0D002080235B000380002343600733F5
:107140000372704783000148C0187047840D002007
:10715000836C402B09D03F22036CC154036C013374
:1071600013400364836C013383647047F7B50500F3
:107170006846FFF759FA00264022019B013B02D3E3
:107180002E6D961BFAE768460193FFF754FAAB6D34
:107190006846002B4FD1FFF747FA2900019BA83121
:1071A000013B5A1C0CD00C785A1EE4B2002C05D1BD
:1071B00068460193FFF73FFA2000FEBD1300F0E799
:1071C000684601930024FFF736FA2A002900A0320E
:1071D0001368A431B4420ED0086898420BD9280035
:1071E000591CEB181160603319780830C9B2FFF7E9
:1071F000AFFF0134E9E709689942DDD1002313604C
:107200000133AB656846FFF70FFA2F002A00002113
:10721000019BA837013BF532581CC9D03970107852
:107220005E1E002805D0117028000193FFF742FA76
:10723000EBE73300F0E7FFF7F7F92900019BF431A2
:10724000013B5A1C06D00C785A1EE4B2002CAFD079
:107250001300F6E7684601930024FFF7ECF92A00D3
:107260002900EC321368F031B44202D00868984229
:107270001DD8096899429FD1002368461360AB6509
:10728000FFF7D2F92F002A000021019BF437013BC0
:10729000F532581C00D18BE7397010785E1E00283B
:1072A00011D0117028000193FFF704FAEAE72800D3
:1072B000591CEB181160AC3319780830C9B2FFF7CC
:1072C00047FF0134CBE73300E3E710B50400FFF7D5
:1072D0004DFF206D10BD10B50400FFF747FF236D73
:1072E000002B03D0E36CE418207A10BD012040424B
:1072F000FBE7F7B517000E000400FFF737FF6846FD
:10730000FFF792F93F2200259446019B013B5A1C4E
:1073100019D0BD4215D2226D002A12D00121226D52
:107320004942002A0AD06046E26CA218117AE26C47
:1073300001320240E264226D013A22657155013545
:10734000E7E7013BE3E768460193FFF774F928009C
:10735000FEBD0000014B024A1A6070476412002013
:10736000005000412023F7B5474A0500D1690F209E
:107370000B43D361012245490B7813430B70444BF7
:1073800019788143197006211C78214319704149ED
:107390000C7822430A701A7802401A706022197819
:1073A0000A431A703C4B3D4A5A805F78FF09FCD172
:1073B0003B4800F007FC01233A4C3B4E226830006A
:1073C00011780B43137080223900520001F009F844
:1073D00022689378DB07FCD456621F26334B1B6868
:1073E000590B980C9B01314030405B0FB14200D1EA
:1073F00005211F2800D10238072B00D1043B314062
:107400008901178D01912A4930400F400199394374
:107410001185118D0700B143080038431085118D87
:107420001803244B7F260B4003430C2013850823AD
:10743000D17881430B430321D3702268D3788B43E7
:1074400001390B43D370226813783340137004233F
:1074500022681678334313702268C1241389A4006C
:1074600083431548138103591B021B0A03518023D0
:107470000360137811481943012311702B70002108
:10748000FEF7B6FEF7BDC046000400405844004178
:107490003C44004159440041000C004006400000BB
:1074A0002571000064120020681200202460800012
:1074B0003FF8FFFFFF8FFFFF00E100E0500D0020CD
:1074C0000120704710B50368014A1B6A984710BD38
:1074D00013040000FC30006A704787239B00C0182B
:1074E000C36880204000C01A70470300FC331A6A4A
:1074F000002A03D0DB69C018007D7047012040429C
:10750000FBE710B504000069FEF700FC2200002331
:10751000FC329361D361136287229200A4186360E6
:10752000A360E36010BD872310B59B00C218D36829
:10753000002BFCD10069FEF700FC10BDF0200140DB
:107540003039484248417047F0231B0119408023DD
:1075500006209B0099420AD00133FF330130994243
:1075600005D0802302385B00994200D0002070478C
:107570000F2001400020012903D00239481E81411B
:10758000481C70478B23F0B5182685B002919B00EC
:107590000400C05C330008214343324D1700EB1850
:1075A000595600F06DFD304B0821E05C3300434339
:1075B000EB18595600F064FD2C4BE25C0393022A51
:1075C00009D11133E05CFF2805D008214643AE19EC
:1075D000715600F055FD8C26B600A05DFF2819D02D
:1075E000012100F0D5FC1822A35D21495A43AB5676
:1075F000AD18DB0158188D21890060501D4901220A
:107600005B188E218900635069688A408F21890048
:1076100062501A600122029B11002069FEF724FDCE
:1076200039002000FFF790FF390005002000FFF728
:107630009FFF390006002000FFF780FF3300009015
:10764000290020690122FEF731FB0B4B2069E25C27
:10765000039BE15CFEF747FB2069FEF764FB05B086
:10766000F0BDC046E08600002D0200002F020000A1
:1076700018440041144400412E020000802210B53D
:1076800004005200002100F0ACFE23000022FC3375
:107690005A6020009A60DA6010BD0000F7B51D0046
:1076A00008AB1B780400009309AB1B78160001930C
:1076B00000234360FA239B008360114B0F000833C3
:1076C00003601430FFF7DAFF20002130FF30FFF7AE
:1076D000D5FF8B236A469B002761E654094B12783D
:1076E000E554094B2000E2546A46084B1279E254F3
:1076F0008C22313BFF3B9200A3541032A354FEBDB9
:10770000448B00002D0200002E0200002F0200001A
:10771000F7B5EFF3108300930123019372B680262F
:107720000200FF25019BFC327600013B5C1C0FD060
:10773000D4685F1EB44209D05468015554680134BE
:107740002C405460D4680134D460EEE73B00EDE790
:1077500068460193FEF76FFFF7BD13B5EFF3108393
:1077600000930123019372B6019B5A1E0192002BD4
:1077700015D00300FC33DA68002A0DD09A68845CC7
:107780009A680132D2B29A60DA68013ADA606846E1
:10779000FEF751FF200016BD01246442F7E70124E3
:1077A0006846FEF748FF6442F4E710B5040000693C
:1077B000FEF7E1FA002805D02069FEF7ECFA20690F
:1077C000FEF7DEFA2069FEF7C6FA00281BD0206912
:1077D000FEF7E1FA010020001430FFF799FF8C2337
:1077E0009B00E35CFF2B0ED02300FC331A6A80233E
:1077F0005B009B1A092B06DC8D238F229B009200D5
:10780000E358A2581A602069FEF7C0FA00280ED08B
:1078100087239B00E318DB68002B14D02000213065
:10782000FF30FFF79AFFC1B22069FEF7B8FA20696E
:10783000FEF796FA002805D02069FEF795FA206930
:10784000FEF785FA10BD2069FEF7B7FAEFE70000F2
:10785000F8B5040000690D00FEF798FA87239B0035
:10786000E618002802D0F368002B34D001278022CC
:10787000F3685200934223D1EFF310833B4210D1BF
:10788000174B5B68DB05DB0DF1D0103B5BB2002BC7
:1078900010DAF13A1340083B9B08124A9B009B18F0
:1078A0001B682069FEF772FA0028E0D02000FFF77D
:1078B0007CFFDCE79B08C0330B4A9B009B58F0E73A
:1078C00020002130FF302900FFF722FF2069FEF75A
:1078D00070FA0120F8BD29002069FEF760FAF8E788
:1078E00000ED00E01CED00E000E100E010B5040058
:1078F0001430FFF732FF8C239B00E35CFF2B0ED08C
:107900002300FC331A6A80235B009B1A0A2B06DDD6
:107910008E238F229B009200E358A2581A6010BD5C
:1079200070B50E0000254468002C0BD02368310090
:107930005B6820009847002802DB2D18E468F3E715
:1079400001256D42280070BD70B50D004468002C03
:1079500008D0236829009B6820009847002802D19E
:10796000E468F4E7200070BD70B50D004468002C99
:1079700007D0236829002000DB689847E4682D18A9
:10798000F5E72C7070BD70B50D004468002C08D070
:10799000236829001B6820009847002802D1E4686A
:1079A000F4E7200070BDF8B542788B790D00017ABC
:1079B0009B18040000208B4222DC6368834219D1AB
:1079C0006560002623786A71EA792B719B18237011
:1079D000AB79B34213D9AB68B7006078DF19FFF712
:1079E000B1FB3B68013603606378F6B20133637024
:1079F000EEE70B00D9680029FBD1DD60E1E701204B
:107A0000F8BD000070B50126054D064C2B683342C9
:107A100003D12000FFF78EFB2E60200070BDC04612
:107A2000681300206C130020F7B506000D000C0051
:107A30008B180193019B671B9C4207D03368217808
:107A40001B683000984701340028F3D13800FEBD90
:107A500070B5040008000D0000F090FD23680200DE
:107A600029005B682000984770BD10B50B1E02D03E
:107A7000FFF7EEFF0300180010BD10B5FFF7F5FF8C
:107A800010BD10B503681B68984710BD10B50249BA
:107A9000FFF7DEFF10BDC046788B000070B5040014
:107AA000FFF7E3FF05002000FFF7F0FF401970BD6E
:107AB000F0B58BB06B461500002205330600DA776F
:107AC0000800012D00D80A2509AC290000F01EFC91
:107AD000CAB2130037330700DBB2092902D81300FA
