:1020000000800020C57D0000AF7D0000AF7D000096
:1020100000000000000000000000000000000000C0
:10202000000000000000000000000000AF7D000084
:102030000000000000000000AF7D0000197E0000DD
:10204000AF7D0000AF7D0000AF7D0000AF7D0000E0
:10205000AF7D0000AF7D0000AF7D0000B17D0000CE
:10206000AF7D0000AF7D0000AF7D0000AF7D0000C0
:10207000AF7D0000695E0000595E0000AF7D00008A
:10208000AF7D0000AF7D0000AF7D0000AF7D0000A0
:1020900000000000AF7D0000AF7D0000AF7D0000BC
:1020A000AF7D0000AF7D0000AF7D0000AF7D000080
:1020B0000000000010B5064C2378002B07D1054B1B
:1020C000002B02D0044800E000BF0123237010BDA4
:1020D000100200200000000090CE0000044B10B55C
:1020E000002B03D00349044800E000BF10BDC046E8
:1020F000000000001402002090CE00007047000095
:1021000010B520220249034800F0D0F810BDC046A7
:10211000D00900202C020020F0B5012195B01E202E
:1021200006F068F800211E2006F0B0F896213C4C1D
:102130008901200004F092F9200004F0DFFA002861
:10214000FAD0384D280000F0C2F83749200005F0D9
:10215000D7FD280000F0B8F9344F2000390005F011
:10216000CFFD334D280000F079F8061E0DD0314B1D
:1021700098420AD03049200005F0C2FD0A22310001
:10218000200005F00AFE15B0F0BD2C49200005F036
:10219000B7FD280002F0A8F82949200005F0B0FD9D
:1021A000280002F01BF82749061EE4D13900200060
:1021B00005F0A6FD280000F051F8061EDAD12249EC
:1021C000200005F09DFD280002F0B4F8061E01D0A5
:1021D0001E49D0E71E49200005F092FD03AA02A97E
:1021E00028000296039602F0C9F8061EF0D10100FD
:1021F000402204A808F0E0F8039B164A009340210F
:10220000029B04A808F0F8FD04A9200005F078FD61
:102210001149200005F074FD280002F065F8B2E7CE
:10222000B00E00202C02002058C5000069C5000037
:1022300040020020D7D8FFFF76C5000096C50000F9
:10224000A5C50000B4C50000D5C50000E2C500006A
:1022500002C6000021C600004EC600001FB50021C6
:1022600003919021C9000291A139FF3941189823A7
:102270000191020080219B000091C3186032024945
:1022800001F0D8FF05B000BD34020020034B044A22
:102290001A60044A5A60044A9A6070473402002067
:1022A000212500003525000049250000016042601D
:1022B000704710B540680021C0B205F0E7FF10BDBF
:1022C00010B540680121C0B205F0E0FF10BD10B5A7
:1022D000040000680368DB6A984763680121D8B28C
:1022E00005F088FF2000FFF7EBFF10BD70B504007C
:1022F000FFF7DFFF20680A4B0268D56906CBA847C5
:102300002068052103689B689847206800210368BE
:102310009B68984705002000FFF7D2FF280070BD9A
:10232000A009002010B5FFF7E1FF0123184010BD00
:10233000F8B504000F0015001E002000FFF7F2FFA3
:10234000002803D0012005F0CDFDF6E72000FFF7BF
:10235000B0FF2068154A03681168DB695268984726
:10236000206803210368AE199B6898472068390CE0
:102370000368C9B29B6898472068390A0368C9B2E4
:102380009B6898472068F9B203689B689847AE42FB
:1023900007D02068002103689B68984728700135A2
:1023A000F5E72000FFF78CFFF8BDC046A809002024
:1023B00070B50400FFF77DFF2068074B0268D56900
:1023C00006CBA8472068062103689B689847200031
:1023D000FFF776FF70BDC046A0090020F8B50400E5
:1023E0000F0015001E002000FFF79CFF002803D0FF
:1023F000012005F077FDF6E72000FFF7D9FF200068
:10240000FFF757FF2068154A03681168DB695268B7
:102410009847206802210368AE199B689847206896
:10242000390C0368C9B29B6898472068390A036869
:10243000C9B29B6898472068F9B203689B689847BF
:10244000AE4206D020682978036801359B6898471A
:10245000F6E72000FFF734FFF8BDC046A0090020D2
:1024600070B504000D002000FFF75CFF002803D0CA
:10247000012005F037FDF6E72000FFF799FF200067
:10248000FFF717FF20680F4B0268D66906CBB047ED
:102490002068202103689B6898472068290C0368FE
:1024A000C9B29B6898472068290A0368C9B29B682B
:1024B00098472068E9B203689B6898472000FFF7B7
:1024C000FFFE70BDA009002070B504002000FFF7DA
:1024D00029FF002803D0012005F004FDF6E72000C5
:1024E000FFF766FF2000FFF7E4FE20680B4B026851
:1024F000D56906CBA8472068602103689B68984788
:102500002000FFF7DDFE2000FFF70CFF002803D0BE
:10251000012005F0E7FCF6E770BDC046A0090020E9
:1025200010B50B0001000248FFF702FF002010BDAC
:102530002C02002010B50B0001000248FFF74EFFEF
:10254000002010BD2C02002010B501000248FFF74A
:1025500087FF002010BDC0462C020020064B074A12
:1025600000211A60012219715A710548054B186043
:1025700019715A717047C046A009002000EA32065E
:1025800080F0FA02A809002001238B40F7B5446CC3
:102590000193019DA368060000202B421CD08A25D0
:1025A0006D00694323695D1882420FD02A7857B2C3
:1025B00087420BDB01273A4208D00A008021288994
:1025C00014329A180002736849009847A368019A68
:1025D0009343A36000232B70FEBDC368F0B58468ED
:1025E00002002340181E17D08A27002315787F0089
:1025F000AB4201DB00200FE00120984004420CD0E8
:10260000380058431669301806787F2E05D8068999
:102610008E4202D153684360F0BD0133E8E782681F
:10262000010030B50020531C13D000230125087889
:10263000834201DB00200CE02C009C40144209D1B5
:102640008A20400058430B69224318184B688A605F
:10265000436030BD0133EBE7F8B5446C0700E26836
:10266000A368002013409A420ED1237801219C4692
:10267000020003004942624507DB00204B1C03D0E7
:1026800001223800FFF780FFF8BD8A267600564306
:102690002569AE19706865682D1A9D4204D936788F
:1026A0007F2E01D82B0011000132E4E710B50400A1
:1026B000406CFFF792FF002804D0417800222000F0
:1026C000FFF762FF10BDF7B5466C1C001B0A9BB2FA
:1026D00005000F00300019000193FFF77EFF7368BB
:1026E00001337360002810D08A2143604378490089
:1026F0005943E4B2143409193469089A61180998E5
:1027000007F03EFE00273800FEBD03231F40012FC7
:1027100006D12B68099A0899200098470700F2E72C
:102720002800FFF799FF0700686CFFF778FF00901B
:10273000002824D002236A4603708A2392885B0013
:102740000281427880215A43336914329A1820005A
:10275000FF23490098432B6898478A2149000028A5
:1027600000D00700009BE4B25B7814345943091988
:102770003469089A6118099807F002FEC3E72B68CC
:10278000099A0899200098470028C7D1BBE7F7B5F8
:10279000476C0191190A050089B238001C00FFF747
:1027A0001CFF061E0CD01C22019B1A40182A07D0C1
:1027B0004178002A0AD19B0708D02800FFF7E4FEE1
:1027C0006B68099A08992000984714E08A235B00F7
:1027D0005943E0B23B69143040181818089A099917
:1027E00007F0CEFD02227B6801337B607360337893
:1027F0001340181EE4D1FEBDF7B5426C9468D3684F
:102800002340181E09D013788A260193012500233E
:1028100076000198984201DC0020FEBD2800984017
:1028200004420BD0300058431769381807787F2FBF
:1028300004D90789BC46CF88BC45EED00133E8E710
:1028400070B50C1E0FD03021C56A836A69431A1D0A
:102850005B18002104339A4206D161780022FFF709
:1028600093FE0023238170BD0026955F002D03D0C9
:10287000D569A54200D1D1613032ECE7F0B5476CA3
:1028800089B00600002F36D08A21806C49001438A8
:1028900005F0E8FD041E2ED0002301210193019ACA
:1028A000013352000A4301929C42F8DC03AD082236
:1028B0000021280007F080FD3B0014332B61012329
:1028C0005B42AB60019B290014223800EB602C7046
:1028D00007F056FD756C8A262A787600724300212F
:1028E000286907F069FDAB68EA68E4B29343AB601E
:1028F00000239C4201DC09B0F0BD32005A43296933
:102900008A1853700133F4E7F0B585B006000D0066
:10291000140003930027682A06D910007C21693827
:1029200005F0A0FD013087B280210A9B09020093C7
:10293000294300233A00300002F092F8002811DB0E
:102940000A9B1D882D02002F0ED123001733039AF6
:102950005B00019202225B190092152100223000D7
:10296000FFF7B1FE05B0F0BD231D682CEFD92000A4
:102970007C21693805F0FCFD0B1DE8E730B50E251C
:10298000002385B06D441A000095040002F068F839
:102990000B4B984212D000280EDB0D22BF236A4455
:1029A00013702B88019201221B0200920433002233
:1029B00004212000FFF7EBFE05B030BD0020FBE74F
:1029C000EED8FFFFF0B58BB0049310AB1B88122537
:1029D0000593504B140019430E2304AA9B18198029
:1029E00009ABAD18018A009342692B00060001F083
:1029F000FDFF002833DB099B2D880693682C30D916
:102A00002700693F7C21380005F02CFD013083B29E
:102A10007C213800039305F0ABFD0991326A059BD8
:102A200001928022520000921B02002215213000E8
:102A3000FFF749FE002812DB069B376A2D01ED18CF
:102A400004AA7B783978D28901351B02ADB20B43D9
:102A50009A420AD02900300002F0F4F82E480BB058
:102A6000F0BD002309940393D8E7FB78BA781B02E2
:102A70001343039A934205D02900300002F0E2F894
:102A80002648ECE738223B799343C02B05D0290038
:102A9000300002F0D7F82248E1E7039B002B2AD14F
:102AA0006B4664001B8A3C19E38580225200009229
:102AB0002B020197002207213000FFF768FE002853
:102AC000CDDB0F23174A2B409B180E2204A9521866
:102AD000019202222D095B002D0300925B19002256
:102AE00004213000FFF753FE0028B8DB05993000C1
:102AF00002F0A8F8B3E7682C05D864006B461B8A7F
:102B00003C192381D1E720007C21693805F030FD94
:102B10004C00F3E70080FFFFBDD8FFFFBCD8FFFFEC
:102B2000BBD8FFFFFFFFFF7FF0B5002485B00E008C
:102B30001F00118803930294019400942300050060
:102B400001F0FEFFA0420ADBFB213A8833021202A9
:102B50000091053305322100280001F07BFD05B00E
:102B6000F0BD0000F0B593B0069101331101CB1810
:102B7000C46C9BB207000593002C08D01002F968C2
:102B800005F070FC0023020019001800A047059B07
:102B90000EAD1B0208930523019500930022089BAC
:102BA00015213800FFF78FFD041E00DAD5E0069BE3
:102BB000002B00D081E02B797F2B00D986E0069B8B
:102BC0001C001D000493069B834A013B9BB2934269
:102BD00000D902E28148069B02000EAE03439BB27D
:102BE0003188079333790A430990079892B2824259
:102BF00000D1B2E15AB2002A51DA9A074FD44422E6
:102C000013424CD0042572881D4000D1EEE01223FF
:102C100006A81B180BAD009338002B00FFF774FEBD
:102C20006F4B040098423AD0002800DA95E02B88D8
:102C3000059A934233D110AD2B003200059938002C
:102C4000FFF772FF041E00DA87E0122006AC0019BD
:102C500000880EAE2B887288318800903800FFF70C
:102C6000B1FE604B0400C318022B16D82988380027
:102C700001F0E8FF041E70DB31883800FFF77EFEAC
:102C80000123FD6C04000493002D06D0002332883C
:102C900018000621A84701230493002C5DDBFC6C7F
:102CA000002C04D00023059A05211800A04705999F
:102CB000380001F0C7FF040092E14B4B069A9A429C
:102CC00000D082E02B79DB0700D57EE004232E794B
:102CD00029886A881E404BD006A80E331B180BAEFD
:102CE000009338003300FFF70FFE3D4B040098427D
:102CF00000D16CE0002830DB3388059A934200D085
:102D000060E010AE33002A0005993800FFF70CFF91
:102D1000041E22DB06A8408A33886A88298800902E
:102D20003800FFF74FFE2F4B0400C318022B17D8B3
:102D30003188380001F086FF041E0EDB2988380038
:102D4000FFF71CFEFE6C0400002E04D000230621B9
:102D500018002A88B047002C34DA200013B0F0BDE8
:102D6000FE6C002EF7D06B882A8802210020F1E744
:102D70001A4B0096194389B2059B380001F070FE8A
:102D8000174B04009842E6D12988144B00960B4358
:102D900099B232003300380001F09AFE041E11D1BE
:102DA00010AB2A0005993800FFF7BEFE041ED4DBE5
:102DB000FB6C9C46002B05D06B882A8803213000D1
:102DC0006546A8470123049304E00023F8E60123A5
:102DD000002404931D00F6E6FDFF00000080FFFFC5
:102DE000EED8FFFF45270000FFFF0000162606ABC8
:102DF000F61800962B000799380001F031FEC14B00
:102E00000400984200D075E035800EAE3188099BF1
:102E10000CAD19437288002389B20095380001F087
:102E20001FFEB84B0400984268D100232B802B88EA
:102E3000002B06D0162306AA9B181B88002B00D057
:102E40002DE7069B06AA59041A239B18009300231A
:102E5000490C1A00380001F003FEAA4B0400984206
:102E60004FD1162306AA9B1800221A80002331880E
:102E70000DAD49041A00490C0095380001F0F0FD31
:102E8000A04B040098423FD100220CAB1A80F823DB
:102E9000162110AA06A81371091873880888538090
:102EA000002805D01A2106AC0919098800292ED05E
:102EB000298800292BD00CA909880691002926D140
:102EC00033880999380019431E23118006A95B181D
:102ED0000599FFF729FEFD6C0400002D04D07388CE
:102EE000328803210698A847002C00DA35E7012331
:102EF0000493D4E6002800DB87E72EE7002896DA63
:102F00002BE70028B2DA28E70028C0DA25E70CAA68
:102F10001288002A03D02A88002A00D1BFE61A228C
:102F200006A952181288002A00D1B8E6002800D05D
:102F3000B5E66A46FD6C928B10AC2280002D02D063
:102F400032880321A8471E2306AA9B180599220050
:102F50003800FFF7E9FD0400C6E76946042218209F
:102F6000095E1A40002944DA002A44D15AB2002AE4
:102F700000DB94E69B0730D5122306A95B180EAE42
:102F800072880699009338000BABFFF7BDFC5D4BD0
:102F900004009842ABD0002800DADEE6012206AB3E
:102FA00004929B8A059A934200D078E6FC6C002C30
:102FB00004D07388328803210020A047FD23012616
:102FC00010AA1370089B0192043300960022072177
:102FD0003800FFF7DCFB04000496002D00D05EE60D
:102FE000002C00D0B9E6049C474B67427C41E418B2
:102FF000B3E6002ABAD11A26069B0EAD5B045B0C21
:10300000099306ABF6186A88059B00960999380063
:1030100001F026FD3B4B040098424CD10023338045
:103020006A880DAD059B00950799380001F018FDE1
:10303000344B0400984241D100232B801A2306AA66
:103040009B1828881D88FC6C002D3AD0002800D0E1
:1030500025E6002C04D00EAB5B88069A0221A0471F
:10306000F82310AA13716B461E269B8B0025138034
:103070000EAB5B880799538006ABF61801230293C9
:103080002B00039601950095380001F059FD0400CE
:10309000A84200DA61E6FB213288089B1202009107
:1030A000053305322900380001F0D4FA0400A842A3
:1030B00000DBF4E551E60028B2DA4EE60028BDDA7E
:1030C0004BE6002800D1EAE50EAB5B88002C03D06C
:1030D000069A03212800A047FC2310AA13716B460F
:1030E0001E269B8C002513800EAB5B8809995380AC
:1030F00006ABF618012303960293019500952B0069
:10310000C2E7C046EED8FFFFA9D8FFFFF0B58BB0ED
:103110000593C76C436A040003911600119D049344
:10312000002F08D01002E16805F09CF9002302008E
:1031300019000120B847039B4F49504A5B189BB2C6
:10314000934200D994E00522059B36010133F6181D
:10315000B7B208AE00923B02019600221521200072
:10316000FFF7B1FA002816DB3922337993437288CE
:10317000002A12D1802B6ED1E56C002D04D0039B68
:103180003A0005210120A8473900200001F05AFD2E
:10319000002800DB3A4805006BE0C02BFAD0039B07
:1031A000384A5E0494460023606A760C6146C25A2F
:1031B0000A40B24212D1049AD35E002B58DA304D45
:1031C00036E002339C424FD12B68049859000133FA
:1031D0000A527F2B00D900232B6049E08022023362
:1031E00052009342E2D10E2304AA9B1800930023BD
:1031F00003991A00200001F033FC00280AD0224B6A
:10320000984224D169462B68049A89895B009952B7
:10321000012204E02B68049A5B009E5202002B6896
:1032200001337F2B00D900232B60184D002A20D0BA
:10323000E66C002E04D0039B3A0004210120B04725
:103240003900200001F0FEFC002812DAA3E700227A
:103250009042E4DA9FE7C02B9CD0039B09485A04B4
:10326000636A520C5C1CFF34198801409142A8D15A
:10327000034D28000BB0F0BD0080FFFFFE7F000073
:10328000AAD8FFFFFF7FFFFFEED8FFFFA9D8FFFFFF
:10329000F0B5C46C87B00600002C04D000231A00DF
:1032A00019001800A0470024144B059401930494BE
:1032B000230003940294009422002100300001F0C6
:1032C000F3F90F4B0500984215D0A04207D0F76CD8
:1032D000A74204D00200230001212000B847F46C6B
:1032E000002C05D000238022190052001800A047AE
:1032F000280007B0F0BD2500F1E7C046652B0000AF
:10330000A8D8FFFFF0B5C46C97B00500002C04D01E
:10331000002302201A001900A047002307931C0075
:10332000B0E1802200215200686A07F045F8079B4F
:103330001B020F9300230A93EE680A9B9E4209D852
:1033400000230693069B079A5B00D3189BB20A934F
:1033500000230AE2EB6C0593002B13D00A9B370184
:103360005804390005F07EF8310005F07BF839008B
:1033700006000F9805F076F8002332181900022095
:10338000059EB0470A9B1B0101339BB206930A9B23
:1033900001331B010E93069B0E9A934201DB00231F
:1033A00069E1069B00221E0212AB01930523152141
:1033B000009328003300FFF786F9041E00DAE5E0E9
:1033C000079B069900228B4207D8CA0F079BC64964
:1033D00006985B18D91783424A41069B0799581AE9
:1033E000012143080593069B19408900002A0FD04C
:1033F00012AB1B795FB2002F0ADA0120034207D11A
:103400006B6A05981B18012088401F7807431F70BE
:1034100012AB1F797BB29C4600236046984200DBCA
:1034200022E145200740402F00D01DE19A4208D0FC
:103430006B6A059A0231981801238B400278134376
:1034400003702B6A0022019380235B0000931521F7
:1034500033002800FFF737F9041E00DA96E02B6AE4
:10346000059312AB5B880993002B00D081E0059B8C
:103470002E330B9369230C9300230893089B0B9A1C
:103480005B00D65A079A0023B24206D81300964A28
:10349000F10F9A18D317B2424B41944A9449B2188B
:1034A00092B28A4205D9002B00D18BE0330700D0BD
:1034B00092E01627099B089A28009E18059A059BFA
:1034C00051781B78090219430CABFF18B6B24904B6
:1034D0000023490C0097320001F0C2FA854B04002A
:1034E000984251D100233B803B88002B16D1FC2011
:1034F0000599059A497812780902114314AA1071A6
:1035000001204904490C11805680029003970193D1
:103510000093280001F014FB041E37DB16230CAACD
:1035200005999B18059A497812780902114380225F
:1035300012021143069A1B88280000923200FFF7FE
:1035400041FA6D4B0400C318EE6C022B28D8002EF4
:1035500009D0059A059B52781B7812021A4306215E
:1035600000230220B0470699280001F06BFB0400FD
:1035700025E07C22099B0C925343133B9BB2099399
:10358000059B08330B9377E70028ADDAEE6C002E2D
:1035900000D180E00023220001210220B0477AE020
:1035A000002E0CD0059B9A78DB781B021343059AFA
:1035B0001178527812020A4302210800B047002C09
:1035C000E4DB0123089A01320892002B4CD10C99BC
:1035D0008A4200D052E747E0052214AF009233023E
:1035E0000197002215212800FFF76DF8041ECDDB9E
:1035F00012AB1A883988414B134099420BD1099B71
:10360000089879881B18994205D17A213B798B4318
:10361000842B00D17DE016270899099B52045B1882
:103620009BB20D930CABFF18510C330000970D9A11
:10363000280001F015FA2F4B0400984237D10023DF
:103640003B803B8812AE3188002B33D1EC6C002CD0
:1036500003D00A0002200621A04731882800FFF786
:103660008DF9041E92DB0023069A013292B2069273
:10367000002B00D18FE60A9A013292B20A92002BF7
:1036800000D159E6EB68079A1B019A4200D248E63E
:10369000002C00D07AE7ED6C002D05D000238022AD
:1036A000190052000220A847200017B0F0BD0028E2
:1036B000C7DA6BE7069A280000920D9AFFF782F9A5
:1036C0000D4B0400C318EF6C022B19D83288002F61
:1036D00003D0002306210220B84712AB1988280026
:1036E000FFF74CF943E7C046FF010000FFDFFFFF93
:1036F000FDDF0000EED8FFFF45270000FF7FFFFF42
:10370000002F00D15BE70221738832880800B84798
:1037100055E70121079BF71A6B6A7F080E40B60038
:10372000DB5D761833410B4016D0EC6C002C03D0D7
:10373000002305310220A04712AB19882800FFF7AB
:103740001DF9041E00DA21E70699280001F07AFA33
:10375000041E00DA1AE701230121B1406A6AD71971
:103760003A780A433A702DE701230893069A6B6A68
:103770009B5C089A9200134107221A400992012A81
:1037800000D093E0089A0A9B12AE9B1805229BB2C8
:10379000059300921B020196002215212800FEF7D6
:1037A00092FF041E00DAF1E616270CABFF1811ABEE
:1037B00072883188280000933B00FFF7A5F8041EAB
:1037C00061D180223B889201934220D81A071ED0F3
:1037D000052214AF00921B02020001971521280058
:1037E000FEF771FF041E00DAD0E6384A3388134032
:1037F0003A88934204D178223B799343842B45D075
:1038000016230CAA9B181B88059A93424ED011AB25
:103810001B8812AE7288318828000093059BFFF741
:10382000D1F82B4B0400C318EF6C022B45D8002FA6
:1038300004D03288002306210220B84705992800C9
:1038400001F000FA041E00DAA0E631882800FFF734
:1038500095F80400002C00DA98E6069B01330693E5
:10386000099B002B00D00DE7069B1A0080235B000C
:103870009A4200D066E5802292009446079B6344FA
:103880009BB20793FEE6134B98420CD1EC6C002CD4
:1038900004D00023059A05210220A047059928009D
:1038A00001F0D0F90400002C00DA6FE6089B012B30
:1038B00000D059E700230993CFE7002FCAD0022197
:1038C000738832880800B847C4E7C046FF7FFFFF0F
:1038D00045270000EED8FFFF8022F0B5060089B032
:1038E00000215200406A06F067FD0021F46C079148
:1038F0008C4203D00B000A000120A047002407AB34
:103900000393144B059401930494230002940094B0
:1039100022002100300000F0C7FE0F4B0500984246
:1039200015D0A04207D0F76CA74204D001210200B5
:1039300023000800B847F46C002C05D00023802237
:10394000190052000120A047280009B0F0BD250051
:10395000F1E7C0460D310000A8D8FFFFF8B506001A
:103960000C0000F067FF051E0CDB2401A4B2270049
:103970001037BFB2210001343000A4B2FEF796FE2A
:10398000BC42F7D12800F8BDF0B505000F000024B7
:10399000C36887B00393036A0293A2B20492039AA6
:1039A0002303A24201D11E4835E02A6A1421019264
:1039B00080225200009228000022FEF784FE029925
:1039C000184E0B001E3305930023B4461A0098428C
:1039D0000BD0012813D9013400281CD1DDE7088859
:1039E000002806D1013292B2023105988142F6D107
:1039F00005E0604503D101339BB2BB42F4D9D11835
:103A00000F290AD1BB4208D8EB6B04999A1AEA63D2
:103A10002800FFF7A3FF07B0F0BD0134BDE7C046A3
:103A2000D3D8FFFFFFFF0000F7B58022046A5200E1
:103A30000B03009214210022019405002600FEF7DA
:103A400042FE002223001E3611000B4F90420DD083
:103A5000AB6B9A1AEB6BAA63591AE963FEBD1C881B
:103A6000BC4202D0002C04D1013102339E42F6D177
:103A7000EEE70132F9E7C046FFFF0000F0B51D0098
:103A8000C36893B00593036A04000C93059B0F0071
:103A900008920393292B01D929230393002680221E
:103AA000089B52001E60FF21606A06F085FC636A75
:103AB00002960693039B069A5B00D3180322099390
:103AC000033393430A93069B0A9A3B606B425D4122
:103AD00032236D422B400F93039B9B009B180E9348
:103AE0006A461289029B0D920599029A1B038A422B
:103AF00001D100204FE0226A14210192802252005D
:103B0000009220000022FEF7DEFD0C9B002519002C
:103B10002F001E313A4EA84247D001283BD10E2635
:103B20006B460EAAB61802221B8915211B030092B0
:103B3000FE33019600222000FEF7C5FD00282ADB97
:103B4000231DDA8F33889A4235D9D31A0522574379
:103B50000F9A9BB253437D1BEB18079300230699E2
:103B6000274D039A93420BDA0A9E9A0092190E8807
:103B70000B91AE4222D16B469B8E0B80079B13604C
:103B8000089B089A1B68049301331360029B01335E
:103B900002930028A4D013B0F0BD1A88B242BED060
:103BA000002A05D10137BFB202339942F5D1B6E7F9
:103BB0000135ADB2F8E79B1ADB43C7E70B991668EE
:103BC000079F0231BE4219DA0399099D0239049117
:103BD0000E99049E023D0F1FB34204DD69460B9B04
:103BE000898E1980CAE7AE1E0839368809682E808A
:103BF00039600499013904913900EAE70133B0E7EB
:103C0000FFFF0000F0B50500036A9BB00F93436A05
:103C10000C001422002115A80A9306F0CDFB2B8A74
:103C2000A34206D1601CE96804F0A2FC00232982AB
:103C30006B61230101339BB211930F9B24031B196A
:103C40001093002308938FE10C9A109B14219B1A68
:103C50000D932B6A0022019380235B0000932800C0
:103C60000D9BFEF730FD0400002C07D1079B0E9A38
:103C70009B1A7F2B02DC079B0E2B01DD3B0088E0AB
:103C8000079B0C9A5B00D35A079A0993119B9B18C8
:103C90009BB215AA08931378012B15D0002B04D0E2
:103CA000022B00D18FE023006DE06B462421595E8A
:103CB0003B00002900DC66E06B469B8C1774538048
:103CC0006B461B8C1381EEE7528809993B008A42B0
:103CD00059D10522089B13AE00921B0222000196C7
:103CE00015212800FEF7EFFC041E2DDB7388002051
:103CF000682B05D9693B18007C2104F0B3FB013027
:103D000015AB9E8886423DD113AB1A797F2A1ED906
:103D10001A220CA952180292089A009301920022CA
:103D2000099B1100280000F0BDFF041E0CDB2B6A6C
:103D30000022019380235B00009314210D9B280037
:103D4000FEF7C1FC041E0EDA20001BB0F0BD08997E
:103D5000280000F077FF041EF6DB1A230CAA9B183C
:103D6000012252421A8013AB58881A230CAA9B18BE
:103D70001B880993002E1CD117306A460A9B928C2F
:103D800040001A523B00079A01320792002B00D0E4
:103D90006AE70B9A01320B92002B6BD00E9B80339B
:103DA0000E930C9B013BFF3B0C93002C00D12DE1AB
:103DB000CAE7682801D80430DFE769387C2104F0BD
:103DC000D7FB081DD9E7099B984A99499A1892B2DE
:103DD0003B008A42D7D80522089B13AE00921B02F3
:103DE0002200019615212800FEF76DFC041EABDBB6
:103DF00033797F2B2BD91A230CAA9B18002202930C
:103E0000089B009601931100099B280000F04AFFCF
:103E1000041E00DA98E700240CAB02945B8B13A914
:103E200001934B88032200932800099B00F0B8FF00
:103E30002B6A2200019380235B00009314210D9BC9
:103E40002800FEF740FC0400002C9BDA7CE7089970
:103E5000280000F0F7FE041EF6D10021089B029115
:103E6000019313AB5B88022200932800099B00F0AA
:103E700097FF87E7002C00D1CCE065E70B7C002B97
:103E800070D0079B0522CB6001230B70089B13AFFA
:103E900000921B020197320015212800FEF713FC47
:103EA000041E00DA50E778883700682805D9693899
:103EB0007C2104F0D7FA013087B2802315AE7188D7
:103EC0001B0219431A230CAA9B18B7803A000093CF
:103ED0002800002300F0C4FD564B040098420CD18A
:103EE0003189280000F0AEFE041E00DA2CE7002322
:103EF0003370002C00D027E771E0002800DA23E7B8
:103F00006A6A0CAB5B8B01928022520000921B020A
:103F1000002215212800FEF7D6FB041E00DA13E765
:103F20000A9B1B79DA0713D45AB2002A12DA9A07CD
:103F300012D404221A4011D10A9B9978DB781B0213
:103F40000B43BB420CD10CAB5B8B0792F380D0E7E9
:103F5000394CF9E6394CF7E6394CF5E6394CF3E6DD
:103F6000394CF1E602220A70079338E080220026DD
:103F7000CB68120207934B880E7009931A43CB88C3
:103F80008988686A13AFB1420BD1009004970391FE
:103F900002910191280000F0AFFF0400B042A8DABE
:103FA000D2E6019302971300009602003100280028
:103FB00000F078FE041E00DAC6E602963B88696AC5
:103FC00001930A9B28009A78DB781B021343009325
:103FD0003200099B00F0E4FE8BE703230B7015AB66
:103FE0001A780024032A00D1AEE67F2201271C7430
:103FF000079BDB171340079A9B18DB110B93DB0120
:104000000E930B9B0F9A1B02D31A0C930B9B002B46
:1040100000DC19E615A90E78012EA7D0002E00D1DC
:104020002CE7022ED9D000239EE7C0460080FFFF78
:10403000FE7F0000EED8FFFFE4D8FFFFECD8FFFFC3
:10404000EBD8FFFFEAD8FFFFE3D8FFFFF0B50F265C
:10405000C36887B05E43836B0400F61AC36B1E3ED1
:10406000F51A436B0F00032B04D9FB236B4300208D
:104070008B4219DC3800FB21FA3004F0F3F902908E
:10408000864244DB052301936B1E2B43DB0F05AAFD
:1040900004A92000FFF7F2FC002805DB05980028A2
:1040A00004D1029BAB4232DA07B0F0BD049B01227F
:1040B0001E88230040331A70310020000393FFF75D
:1040C000A1FD0023039A13709842EDDB310020001C
:1040D000FFF7AAFC0028E7DB31002000FFF73EFCD9
:1040E0000028E1DB0F22E3685343A26B9B1AE26BCB
:1040F0001E3B9B1A002D01DC9D4204D0019A013A1F
:104100000192002A05D1FB225343BB42CCDA054879
:10411000CAE7626B022A03D9FB225A43BA42F2DA97
:104120001D00B1E7EFD8FFFFF7B5846807000191E4
:1041300015001E00631C17D03300944210D9A41A36
:10414000B44200DD34002300019A2900380001F058
:104150000BFA002807DB019A331B121901922D1963
:10416000002B03DC3000FEBD3300F9E7019A290083
:10417000380000F041FF0028F4DAF4E773B501AA33
:10418000050001F06FFC041E02DA2863200076BDF2
:10419000019EB38B9B06F9D4336A002B04D1310006
:1041A0002800FEF729FB30620198026A002AEDD050
:1041B0008A215678490071436C6C14312469138A42
:1041C0006118D268FFF7B0FF041E00DA2863019B74
:1041D0002800196AFEF734FBD8E70000114BC26DC6
:1041E00070B504009A4202D00F48206309E0030032
:1041F000002554331B78AB4206D00C4B03630120DF
:10420000404270BD0135ADB2E36800209D42F8D256
:10421000231DD8872900200000F00CFB0028F1D0D6
:104220000348E2E715030920D8D8FFFFD6D8FFFFDF
:10423000D5D8FFFFF7B504001D00836D170001916D
:104240006022002100930A9E06F0B6F80C22019924
:10425000200006F095F8009B089AA36580239B0038
:10426000E3607B1CFF33676223620021280006F0B5
:10427000A3F803222A4005D004239B1A089AED18BC
:10428000D31A0893A5623021089804F0EBF80322B2
:10429000099BE0621A4005D004239B1A099AF61A7A
:1042A000D218099203231E4200D09E438022099B0C
:1042B000920163643300964200D91300A364200086
:1042C000FEF7DCFA074B2000E36500F0EFFA002868
:1042D00001DA2063FEBD0B9B0020E364012354340C
:1042E0002370F7E715030920F8B5C26D104B0400E1
:1042F0009A420CD1070054373B78002B07D0002698
:10430000836A1D1DE36AB34202D800233B70F8BDE7
:104310000023E95E002907D02000FFF72FFF0023CC
:10432000E95E200001F082FB01363035EAE7C04645
:10433000150309200E4BC26D10B504009A4202D03D
:104340000C48206310BD030054331B78002B01D1AF
:104350000948F6E70021FEF79BFF2000FFF7BCFAB3
:104360002000FEF7CFFF200000F0A0FAEAE7C046E9
:1043700015030920D8D8FFFFF0D8FFFF10B5104B68
:104380000400C06D984202D00E48206310BD230087
:1043900054331B78002B01D10B48F6E7002907D0D6
:1043A000E368981E0F234343FB20013343430B6014
:1043B000101EEBD0FB23A16B00204B431360E5E7FD
:1043C00015030920D8D8FFFFF0D8FFFFF0B5120180
:1043D0005C1C1419052285B0A4B202AD0F00009236
:1043E00023020195103200210A9EFEF76CF9002885
:1043F0001DDB2B88BB421CD10B9A698812888A422C
:1044000017D129797C200D008543802D11D11BB255
:10441000002B03DA4B0601D4002A0AD0301E06D046
:104420003088001B44426041034C4042204005B0AC
:10443000F0BD0148FBE7C046AAD8FFFF7FB51D00CD
:104440001B4B0C009A4224D0130725D080239B01DC
:104450009A4223D813020421625E052102AE009124
:1044600001961131FEF72FF9002813DB3379DA07B3
:1044700016D45AB2002A15DA9A0715D45B0715D458
:104480000622A35E002B11DA7388AB4202D00948E2
:1044900000E0094804B070BD0848FBE70848F9E7A8
:1044A0000848F7E70848F5E70848F3E70848F1E760
:1044B000FFFF0000E3D8FFFFDED8FFFFDDD8FFFFDE
:1044C000DCD8FFFFE4D8FFFFECD8FFFFEBD8FFFFFD
:1044D000EAD8FFFF094A914206D1002B02D1436B73
:1044E0000133436306487047002903D1C36B01338E
:1044F000C363F7E7836B01338363F3E7FFFF0000D8
:10450000AAD8FFFFF0B585B0019102920789060095
:104510000025682F06D938007C21693803F0A2FFF6
:10452000013085B274890020682C06D920007C21D6
:10453000693803F097FF013080B2019B9D421CD87F
:1045400083421AD8002B1AD07C23019A5A43133A7B
:1045500092B29B1801349BB2A34200DD23009BB2B0
:1045600003933C1C974200D2141CA4B2251D144F87
:104570006D00039AA3B29A4204D805B0F0BD019A27
:104580006923E6E7019A002A0CD1029B5B19DA8CB9
:104590000235BA42F1D033893168E31A5B005A52CE
:1045A0000134E6E72900682B06D920007C21693810
:1045B00003F0DEFF04314900029B5A5AE8E7C04687
:1045C000FFFF000030B51C00194B85B09A4220D087
:1045D000130721D080239B019A421FD81302002287
:1045E0008A5E052102AD009101951231FEF76BF84C
:1045F00000280FDB2B79DA0712D45AB2002A11DA1D
:104600009A0711D45B0711D56B88A34202D00948E1
:1046100000E0094805B030BD0848FBE70848F9E765
:104620000848F7E70848F5E70848F3E70848F1E7DE
:10463000FFFF0000E2D8FFFFE1D8FFFFE0D8FFFF57
:10464000DFD8FFFFE4D8FFFFECD8FFFFEBD8FFFF78
:10465000E5D8FFFFF0B515001E0095B01A9F029037
:104660000391002F02D1380015B0F0BD3C00402F5F
:1046700000D9402404AB019300943300039A0B212A
:104680000298FEF720F80028EEDB04AB01930094BB
:104690002B00039A0F210298FEF779F80028E3DB3C
:1046A0003F1B36192D19DCE7F0B514000F228DB031
:1046B000069312AB1B8806000B93C3680F005A4386
:1046C0000792026A09920E2C00DCA4E00137BFB207
:1046D000BB4251D900243B030393079B002B4FDDC2
:1046E0007F22E31713401B19DB11DA010592099AA7
:1046F0001B02D31A0493039A099B14219B18049A52
:1047000030009B1A0A93336A0022019380235B00D6
:1047100000930A9BFDF7D7FF2500079B02900893A3
:10472000089B2C000793029B002B05D1059BEB1ADD
:104730007F2B01DC0E2D28DD059B80330593049B28
:10474000013BFF3B0493029B002B02D1059B802B76
:10475000D1D10137F368BFB29F4255D280225201B6
:104760009446039B634403930024029BA342B4D06A
:10477000029B002B06DB03E00424069B1C404DD06B
:10478000294B029302980DB0F0BD0122069B134203
:1047900005D0049A6B00D35A0B9A93422FD1169BE3
:1047A000002B00D01F80179B002B00D01D60139B97
:1047B000002BE7D00222069B0B99134202D1049AE8
:1047C0006B00D15A159B3A000193149B3000009363
:1047D000139C2B00A047154BC318012B21D8144B59
:1047E00098420CD1336A0022019380235B0000932E
:1047F00014210A9B3000FDF766FF002811DB089B9F
:104800000135013B08938BE70423069A1340B7D187
:1048100003931F00A8E70B0303935EE703942700AD
:104820005BE70290AEE7C046A8D8FFFF572700001D
:10483000A9D8FFFFF0B504000D030F00802185B05B
:104840004901A36828009847636B22000133636322
:1048500002262B0042320192FE33009600221921DB
:104860002000FDF794FF00281ADBE3680E22DB1B13
:104870000D4F6A445F402B001780FC330192009675
:10488000002219212000FDF782FF002808DB80228A
:104890000434E38F120201339BB2934202D0E387C8
:1048A00005B0F0BD0023FAE729040000F0B50027A9
:1048B00004008BB03B4D08AB1F80079508AE3388D2
:1048C000E268934224D3384A7B1B0135934200DCD3
:1048D0007D1C231DADB2DD87079B1A00314B9A4228
:1048E00058D1002509AB0593304B65630193A5634F
:1048F0002B00E56304960395029500952A00290094
:104900002000FFF7D1FE2A4B984241D128003FE01A
:104910001A2202A95218019202221B030092FC33B0
:10492000002215212000FDF7CEFE002830DBE268D2
:104930003388D11A1F4A4A4002A9498B92B2914248
:1049400005D0079A1100174A914220D107930222FD
:104950001B0309AE0092FE330196002215212000B0
:10496000FDF7B1FE002813DB33880E4A934209D0CD
:104970001A1CAB4200D92A1C95B21A1CBB4200D2A9
:104980003A1C97B208AA13880133138096E70A48A5
:104990000BB0F0BD07992000FFF74CFF0028A0DA0C
:1049A000F6E7C046FFFF0000FF7F0000D54400008F
:1049B000A8D8FFFF29040000D7D8FFFF10B586B0A4
:1049C000099C00930594089C0123049400240394FB
:1049D00002940194FFF768FE024B984200D102480E
:1049E00006B010BDA8D8FFFFEED8FFFFF0B51E003F
:1049F000030085B0039240330F00197804000A9D2C
:104A000000290BD001950096124B039A3900200023
:104A1000FFF7D4FF002810D005B0F0BD436B012B89
:104A2000F0D8FEF7B1FF0C4B984201D00028F3DB21
:104A3000636B012BE6D80948EEE7338823822B68A5
:104A4000013363612B68002BE6D1636B013B636329
:104A5000E2E7C046FFFF0000D3D8FFFFEFD8FFFF1B
:104A6000F0B51E278BB06F4407AE3A803380040048
:104A70000D00C269018B0020834200D03000222645
:104A800009AB05930F4B6E440290019304960123EA
:104A9000039700952000FFF707FE0B4B98420FD0BD
:104AA00000280BDB109B3188099A002B04D00B01E6
:104AB0009B18109D01332B802183E2610BB0F0BD68
:104AC0000248FBE7CD430000A8D8FFFFEED8FFFF68
:104AD000F0B51E278BB06F4407AE3A8033800400D8
:104AE0000D00C269018B0020834200D030002226D5
:104AF00009AB05930F4B6E44029001930496022379
:104B0000039700952000FFF7CFFD0B4B98420FD085
:104B100000280BDB109B3188099A002B04D00B0175
:104B20009B18109D01332B802183E2610BB0F0BDF7
:104B30000248FBE7CD430000A8D8FFFFEED8FFFFF7
:104B4000F0B50E27122689B0039310AB1B78150021
:104B5000049302ABFF183980F61807AB018A009363
:104B6000426933000400FFF741FF002867DB338808
:104B7000079A1B0352009B180222019700920421FE
:104B800000222000FDF703FE002858DB0122A36B62
:104B900007210133A3632B79200093432B71079BDB
:104BA0009B1832881B0212039B1805220195009264
:104BB0000022FDF7ECFD002841DB039B002B13D006
:104BC000079B3288013312031B029B180F9A05338F
:104BD0009B18039A072101920E9A2000009200224E
:104BE000FDF7D5FD00282ADB049B002B1AD00222FA
:104BF0002B79134216D0934302A910322B7152180D
:104C0000079B1288013312031B029B1801220435F3
:104C1000009204330195002207212000FDF7B7FD23
:104C200000280CDB119B002B09D0122302AA9B1831
:104C30001B88079A1B01D318119A0133138009B0FE
:104C4000F0BD00007FB50E2200260F230C006A4441
:104C50001680019202220B40114900925B18210933
:104C600009035B005B18320031000500FDF78FFD82
:104C7000B04213DBEB6B0D220133EB63AB6B6A4489
:104C8000013BAB637E231370019201222402009248
:104C9000231D320003212800FDF779FD04B070BD0B
:104CA000FFFFFF7FF0B589B015000EAA039102CA7D
:104CB00012241288029104920E2202A95218138023
:104CC00007AB6418018A0093426923000600109F15
:104CD000FFF78CFE00285FDB2488079B24011C194A
:104CE0000134A4B2002F00D03C802702002D1ED139
:104CF0008022049B52001B02009203993A0030006C
:104D0000FFF7A8FC0023029D029324E003222B79E5
:104D1000043593432B70023A00923B1D0195039A90
:104D200007213000FDF733FD002831DA34E001229D
:104D30002B79100059089343921813432B71802349
:104D400088435B000290009301953B0000220721FD
:104D50003000FDF71CFD00281EDB0F230F4A234007
:104D60009B180E2202A952180192022224095B000C
:104D7000240300921B19002204213000FDF707FDD7
:104D8000002809DBB36B0133B363029B002BBDD159
:104D900004993000FFF756FF09B0F0BDFFFFFF7F19
:104DA000F0B587B004930CAB1B88070000930DABE4
:104DB0001B8815000393049B05915B045B0C029315
:104DC000836A1E1D002334000193FB6A019A9342FB
:104DD00008D8012D00D86EE03C6D002C00D06CE0AE
:104DE00007B0F0BD434A63881340029A934238D11A
:104DF000009B002B2BD1022D38D0A38C002B30D060
:104E00006B469B8923810E9B002B20D00E9A6360FA
:104E1000E169009B013209D00E9B002906D0CA68C7
:104E20000B8A9B180E9A934200D2130022699A4271
:104E300000D9236162699A4200D96361002906D0D2
:104E4000CA6801339A4202D93800FDF7F9FCA389F8
:104E5000009A934205D10023022D01D06B469B8915
:104E60006381019B303401330193AEE70022A35EDE
:104E7000002B05D0E169002902D03800FDF7E0FCE5
:104E8000002323806380E2E70022B35E002B0CD076
:104E9000B06A002809D0174A73881340029A9342D7
:104EA00003D1059A0099FFF72DFB01343036FB6AD8
:104EB000A342E9D890E70024F9E7009B002B00D03B
:104EC0008EE76B4610229B5E002B00DB88E7009983
:104ED000012D08D0002D0BD0EB1E012B08D9290085
:104EE000022D00D07CE7039B029A3800A04777E7A9
:104EF0000121F8E7FF7FFFFFF0B589B0059380231C
:104F00000E9C1B021A4306000F000492002C0ED1C7
:104F100004217A5E416A059B01918021490000913C
:104F20001B02EA39FDF7CFFB051E4EDB746A2379BD
:104F3000DA074DD45AB2002A4CDA9A074CD45B07F0
:104F40004CD46388002B4BD10F9B002B05D0200045
:104F5000202219000D3005F088FF119B002B03D093
:104F60002381119B1B0C6381391E01D00423F95E40
:104F7000162302AA9B180293059B2200019300238B
:104F800030000093049BFFF78DFE051E1DD102AB80
:104F9000D98A129B002B00D019800E9A2089534287
:104FA0005A41638901911B04034302936388920071
:104FB00000932100049B3000FFF7F2FE002F04D085
:104FC000162302AA9B181B88BB81280009B0F0BDDC
:104FD000044DFAE7044DF8E7044DF6E7044DF4E715
:104FE000044DF2E7E4D8FFFFECD8FFFFEBD8FFFF5A
:104FF000EAD8FFFFE3D8FFFFF0B595B00E9307683E
:105000000D000E9983680600FB3138000F9206935D
:10501000FFF71CF8041E00DA0BE2069B0A93AB4272
:1050200000D90A957B6AB289069310AB1A80FB21DE
:105030000A9803F017FAFB2183B20A98099303F048
:1050400097FA4E4B0C910B930023079308939C42C5
:1050500000D12EE10A9A089B944663440993B360F9
:1050600073616B469B8B10AD2A883382079BF2815C
:10507000002B00D126E231003800FFF7DFF90028CD
:1050800031DB0421725E796A2B880191802149000D
:1050900000911B02FA393800FDF779FB002822DB6A
:1050A000002202922A8806980192C2788178120220
:1050B0000A430092F3880022796A3800FFF770FEF5
:1050C0001A210AA80918049100210998B389F288C5
:1050D000039002910191009138003100FFF70CFF1D
:1050E000002800DBA5E10400A3E11A2003910AAC2B
:1050F0000B990019049002910191796AB389F288A1
:10510000009131003800FFF7F7FE11E110AD2A8859
:105110000B9B31003800FFF791F9041E00DA88E19B
:105120000421725E796A2B880191802149000091E7
:105130001B02FA393800FDF72AFB041E00DA78E179
:10514000002402942A88F3880192069A3800917804
:10515000D27812020A430092796A2200FFF720FEF9
:105160001A210AA8091804910A980899B3890918FC
:10517000F2880391029401940094C2E7FFFF0000BB
:10518000B368581EC64B98420FD9089B002B0CD110
:10519000FB2103F067F97C21693803F063F9079B71
:1051A000013080B2834200D8FBE08023F1881B02EB
:1051B00019436B469B8B12AD6B80F9232B7110AB9F
:1051C000298003930123029300232A000193009373
:1051D0003800FFF7B5FC041E00DA2AE18022FF2127
:1051E0005200786A05F0E8F805222900786A05F08F
:1051F000C7F8002202920AAA128BF3880192079A3A
:1052000038000092796A0122FFF7CAFD10AB1B88B3
:105210000A9AF3816B469B8B3382089B9B187361C0
:10522000B360079B0B93089A0E9B0C999B1AFB2269
:10523000521A0D929A4200D90D930C9B002B00D06C
:10524000FAE06B469B8C12AAF1885380FD230898E4
:1052500013710F9B4904490C1B1811A8118003906E
:10526000012002900C9801900D9800903800FFF7F3
:1052700067FC041E00D0EDE611AB1D88079B002BD8
:1052800000D011E1099B069A17335B009D520A9AE0
:10529000089B9B18069A13811B0C53810D9A099841
:1052A0009446013083B20993089B6344089300231A
:1052B0000C93089B0E9A934200D3CBE600230793EE
:1052C000099B682B07D918007C21693803F0CAF8BC
:1052D000013083B207930B9B079A9342A3D0089B9C
:1052E000002B2DD00B9B002B00D00FE7089B0A9AB8
:1052F0009918069B069A19810B0C53810A9B002B67
:1053000000D0F2E610AD2A8831003800FFF796F899
:10531000041E00DA8DE00421725E796A2B88019107
:105320008021490000911B02FA393800FDF72FFA5D
:10533000041E00DA7DE0089B0A9A9B18B360736133
:10534000079B002B00D01BE70421725E796A10AB2B
:105350001B8801918021490000911B02EA39380025
:10536000FDF7B1F9041E64DB0122069B1B79134291
:1053700000D0E9E05AB2002A00DBE7E09A0700D546
:10538000E6E05B0700D5E5E00622B35E002B00DB1C
:10539000E0E0069B5B880B93002B00D143E7414C78
:1053A00047E0338A079A934234D11E23F2890AA92F
:1053B0005B181A801E250AAB0421725E796AED180B
:1053C0002B8801918021490000911B02EA393800A5
:1053D000FDF779F9041E2CDB0122069B1B79134291
:1053E00000D0B1E05AB2002A00DBAFE09A0700D546
:1053F000AEE05B0700D5ADE00622B35E002B00DB1C
:10540000A8E0069B079A5B889342C8D12A8810AB14
:105410001A80FBE68023F1881B0219431E230AAA87
:105420009B180093079A089B3800FFF719FB041E8E
:10543000C0DA200015B0F0BD079B002B21D1099BDD
:10544000069A17335B009A5A11AB1A8011AD2A885D
:10545000311D099B3800FFF7B5F8041EE9DB2B88E6
:105460000C9A1B02053308989B180421725E0F9951
:10547000091801910D99380000910721FDF787F96E
:10548000F7E6099B191D682B05D909987C21693815
:1054900003F06EF80431069B49005A5AD4E7C0461F
:1054A000F2660000E3D8FFFF099B191D682B05D9A0
:1054B00009987C21693803F05BF80431069B4900A8
:1054C0005D52EBE60A9B002B31D16946069B098CA5
:1054D00038001981089B06991B0C4B810A9B3100EF
:1054E000FEF7ACFF002800DAFDE50421725E796A60
:1054F0002B8801918021490000911B02FA39380064
:10550000FDF745F9002800DAEDE5069AF3881189E0
:105510005289380012040A4302922A880192069A9C
:1055200052880092796A0422FFF73AFC81E71A2137
:105530000AA8091804910999B38903910799F28877
:1055400002910191796AC6E5034C72E7034C70E75A
:10555000034C6EE7034C6CE7E4D8FFFFECD8FFFF89
:10556000EBD8FFFFEAD8FFFFF0B595B00D91190019
:1055700005680700FB3128000F920E93FEF766FDC9
:10558000041E00DA6EE16B6AFB210793BB890D985C
:105590000B9302F067FFFB2183B20D98089302F092
:1055A000E7FF00230A91C14E069309939C4200D164
:1055B0002CE10D9A099B944663447B616B469B8D5D
:1055C000FB816B461B8B3B82069B002B00D1F4E1D9
:1055D0000B9A39002800FEF731FF002800DAFFE1BE
:1055E0000422B95E1E2200260AA81218FB88029225
:1055F0000B9A009601922800079AFFF753FB0AAB1B
:10560000DA8B6B461B8BFA813B82B04200DAE7E112
:10561000FB880192079A02969178D27828001202AC
:105620000A43009207993200FFF7BAFB1AE1002300
:10563000069333000B9A39002800FEF7FFFE041E84
:1056400000DA0FE10422B95E1E2200260AA8121811
:10565000FB8802920B9A009601922800079AFFF7A6
:1056600021FB0400B04200DAFCE0FB880AAA0296A3
:10567000D28B28000192079A9178D27812020A43BD
:10568000009207993200FFF78BFB069BB34229D1AA
:1056900004217A5E696A0B9B019180214900009187
:1056A0001B02EA392800FDF70EF8041E00DAD9E0E3
:1056B000079B1B79DA0700D594E15AB2002A00DB78
:1056C00092E19A0700D591E15B0700D590E10622AF
:1056D000BB5E002B00DB8BE1079B5B88002B39D086
:1056E000734CBFE03B8A069A934200D0BDE01E2374
:1056F000FA890AA95B181A801E2604217A5E0AAB71
:10570000696AF618338801918021490000911B02D3
:10571000EA392800FCF7D7FF041E00DAA2E0079B55
:105720001B79DA0700D55DE15AB2002A00DB5BE1A4
:105730009A0700D55AE15B0700D559E10622BB5E06
:10574000002B00DB54E1079B069A5B889342C7D18C
:1057500033880B936B469B8D0D9AFB816B461B8B9D
:105760003B82099B9B187B61099A0E9B0A999B1AA5
:10577000FB22561A9E4200D91E00069B002B00D029
:1057800084E0089B079A17335B009B5A0C93002315
:1057900006936B461B8C12AAF9885380FF23490499
:1057A00013710A9B490C1180002B00D082E0FB2E64
:1057B00000D07FE009980F9B00961B1811A803905A
:1057C000012002900A9801902800FFF7B9F90C997E
:1057D0002800FFF737FA041E00D0EAE611AB1B8859
:1057E0000A93069B002B00D0D7E06946089B079AD6
:1057F0001733098D5B0099520898013083B20893E2
:10580000099B9B1909930023069E0A93099B0E9AF4
:10581000934200D3CDE6089B682B00D8F5E0180032
:105820007C21693802F01EFE013083B206939E424D
:105830009AD0099B002B00D154E7002E00D0F8E647
:105840001A210AA80918BB89FA88039402940194C2
:105850000491696A280000913900FFF74DFB041E8E
:1058600000DB3FE7200015B0F0BD8023F9881B0264
:1058700019431E230AAA9B180093069A00232800A6
:10588000FFF7EEF8041E00DB36E7EBE7089B191D77
:10589000682B05D908987C21693802F069FE04312B
:1058A000079B49005B5A0C9373E7C046FFFF00005B
:1058B000E3D8FFFF391D089B0C9A2800FEF782FEF3
:1058C000041ECFDB11ABF988039300234904490C74
:1058D00002930193009312AA2800FFF731F9041EE6
:1058E00000D066E60A9B002B2ED10A9B9819FA2855
:1058F0003BD90AAB9B8B0A9A1B02053309989B186C
:1059000004217A5E0F990096091801912800072159
:10591000FCF73DFF041E00D04BE6022112AA1379CA
:1059200028008B43137104217A5E0AAB13A99B8B69
:10593000019101211B02009104330631FCF727FF7E
:10594000041E00D143E734E60AAA928B0C9B042084
:10595000395E0A981B0212020090053305322800B6
:10596000FEF778FE041EC0D023E60A9B0C9A05338E
:1059700012029B199B1811AA12880A991202053269
:1059800052180424395FFB24201A00909219280031
:10599000FEF760FE041EACD00BE6089B191D682BB9
:1059A00005D908987C21693802F0E2FD04316A4685
:1059B000079B128D49005A521EE71A210AA809189E
:1059C000BB89FA88049106992800039102910191FC
:1059D000696A00913900FFF78FFA002800DB41E780
:1059E00004003FE70D4C3DE70D4C3BE70D4C39E71C
:1059F0000D4C37E7099A0E9B0A999B1AFB22561AFF
:105A00009E4200D8BDE61E00BBE6002EF2D0099BE8
:105A1000002B00D00BE606933AE6C046E4D8FFFF21
:105A2000ECD8FFFFEBD8FFFFEAD8FFFF002910DD1D
:105A30002C22835E8B420CDB30234B43816A303B4C
:105A4000C91804228B5E002B05D000208880C86214
:105A500070470248FCE70248FAE7C046E6D8FFFF75
:105A6000E8D8FFFF10B5002911DD2C24035F8B421D
:105A70000DDB30235943836A3039591811600423F0
:105A8000C85E43425841034B4042184010BD024893
:105A9000FCE7C046E8D8FFFFE6D8FFFF70B5060078
:105AA0000C008D18AC4207D0336821789B68300019
:105AB000984720700134F5E770BD7047704710B506
:105AC0000400406800F0CCFA0023237610BD10B526
:105AD000406800F0EAFA10BDF8B5050040680C0017
:105AE00000F0DEFA2B68E7B2260A9B68012810D185
:105AF00039002800FF2798472B68BC4304439B6864
:105B0000310028009847030220003840184380B233
:105B1000F8BD310028009847FF262B68000234406A
:105B200004439B68390028009847B4432043EEE7BC
:105B300010B5040002F008FA200010BD10B54B1C8F
:105B40000BD0102909D0EFF3108472B6102905DDAF
:105B500002234376002C00D162B610BD0123427EA1
:105B60001A43427618224A430449891816228A5653
:105B70009340C2691343C361ECE7C046B4C600005A
:105B80004B1C17D0102915D0437E9B0712D4EFF37E
:105B9000108272B618234B430749C9180123897D27
:105BA00049B28B40C1699943C16100D14176002A55
:105BB00000D162B67047C046B4C60000437E002BD9
:105BC00005D09A0704D5837E002B00D062B67047BB
:105BD000DB07FCD5C369024A9BB2D360F7E7C04636
:105BE00000180040037E002B04D143768376C36106
:105BF00001330376704700007FB5036902AE0400ED
:105C00000D00029172608B4203D1828AB3889A425E
:105C100026D0200006223100103004F0B1FB60686D
:105C200000F035FA7379E17A013B581E8341227BFB
:105C300000936068002300F083FB33790021013B6F
:105C4000DBB2022B01D8074AD15C074B2A009D42E8
:105C500000D91A00606800F0EBF9606800F00DFAF6
:105C60007FBDC04673C60000001BB70070B5182684
:105C70000400FFF7B7FF33000821207A0D4D43439E
:105C8000EB18595602F02EFB33000821A07A43434B
:105C9000EB18595602F026FB0821607A4643AD19ED
:105CA000695602F01FFB044B200006CBFFF7A4FF50
:105CB00070BDC046B4C60000F009002007B5437EA1
:105CC00000910192002B07D09A070AD5EFF31083B9
:105CD0005A425341837672B60099019AFFF78CFFBE
:105CE00007BDDB07F8D5C369014A9BB29360F3E7B0
:105CF00000180040F7B500240125194B194A5D71C1
:105D00001A601C71184B1948083301930360184B33
:105D1000184F4360184B194E038109233A00310094
:105D20004575046104758372063B0476C47203737F
:105D300002F086FB1248134B019A4360124B4575E3
:105D4000038125233100026004613A0004758372E7
:105D5000223B0476C472037302F072FBF7BDC046A7
:105D6000F009002000093D0078C60000B0090020BD
:105D7000880E0020000000200A080000BD5A000024
:105D8000D0090020A00E00202624000070B5304C61
:105D90003049200000F0FAFA200000F0A0F90321B9
:105DA0000B2002F09FFA03210C2002F09BFA002244
:105DB0006B21200000F0D0F900280BD00121200039
:105DC00000F00CFA1B21200000F008FA032120004B
:105DD00000F0ACF9642002F063F800226B2120008F
:105DE00000F0BAF9002813D100226B21200000F046
:105DF000B3F9002828D00121200000F0EFF90B2191
:105E0000200000F0EBF90321200000F08FF91BE0E7
:105E10000821200000F0E2F90321200000F086F9BB
:105E200001226B21200000F097F90028DCD020002F
:105E300000F0ECF90500200000F070F903212000CB
:105E400000F074F92B07CFD5200000F05DF970BD8C
:105E5000900E0020A086010010B5024801F0DBFD85
:105E600010BDC046F809002010B5024801F0D3FD6E
:105E700010BDC0463C0C002073B51749174800F010
:105E800047F81749174800F043F81749174800F03A
:105E90003FF81749174800F03BF8174C1749200006
:105EA00000F036F8164E1749300000F031F803259F
:105EB00001233100019300950D330D22124801F0AA
:105EC00023FD0023009501931D221A3321000F4862
:105ED00001F01AFD73BDC04600080042800E00208C
:105EE000000C0042880E002000100042900E00209E
:105EF00000140042980E0020A00E0020001800425E
:105F0000A80E0020001C0042F80900203C0C0020D4
:105F100000230371016070479446F0B59E1E721E07
:105F200096416246056892072F6836063A43324327
:105F30002A60072505AC24780068A4012940214384
:105F400042680024022B00D05C03114321434160CE
:105F5000F0BD30B5C0250368AD031C6812052A40AA
:105F60002243C0240904A40221401143196003689C
:105F70005A6814435C6030BD0123026811680B430A
:105F8000136003681A68D207FCD4DA69D207F9D41F
:105F900070470223026811680B4313600268D369DB
:105FA0009B07FCD470470268137E9B0702D40379D9
:105FB000002BF9D1002303717047002203685A8334
:105FC00070470368187E4007C00F70470368187E4B
:105FD000C0097047802302685B42117E0B43137631
:105FE00070470368588B8007C00F70470223026810
:105FF000518B0B43538370470368187EC007C00F53
:1060000070470368188DC0B2704703681A7ED207C4
:10601000FCD589B21985012303711800704701224C
:1060200003689A757047012203681A75704700006B
:1060300070B5012604684B083340314025680907D4
:106040005B070B432B43236004685100034802F0B5
:1060500009FA0138C0B2207370BDC046006CDC0282
:106060000123026811680B43136003681A68D207A2
:10607000FCD4DA69D207F9D47047022302681168A8
:106080000B4313600268D3699B07FCD47047036815
:10609000DA699207FCD402211A688A431A607047B1
:1060A000036818684000C00F70470268936A5B0A73
:1060B0005B021943916203681A7E5207FCD5986A05
:1060C000C0B270470123026811680B431360036874
:1060D0001A68D207FCD4DA69D207F9D470470223D0
:1060E000026811680B4313600368DA699207FCD4F5
:1060F00030215A8B8A43110010220A435A830268C6
:10610000D3695B07FCD470470221026813688B4394
:1061100013600268D3699B07FCD470478023026830
:10612000DB02116851680B4353607047032230B59E
:10613000036811401C68074D5A6809042A40E406A8
:106140001143640F5960052C03D10268D3695B07C2
:10615000FCD430BDFFFFFCFF70B5056804006B8BFD
:106160009B069B0F022B0DD06B8B00209B069B0F79
:10617000032B32D06B8B9B0704D56B8B9B069B0F3D
:10618000012B2AD16B6A49001143DB0AC9B2DB0239
:106190000B436B622368002A13D11A7ED207FCD509
:1061A0005B8B9B069B0F022B04D04908002220002A
:1061B000FFF7D2FF2368588B4007C30F01205840D8
:1061C0000BE0187E8007C00FF4D11A7ED207F8D5F5
:1061D000C022596892020A435A6070BD036828338E
:1061E00019700268107EC007C30F508B002B06D1B8
:1061F000C007C00F08D1538B9B07F3D570474007EA
:10620000C30F01205840F9E71800F7E703681A6840
:10621000D206520F052A05D11A7E920702D41A7EA1
:10622000D207F9D528331878C0B270470368214ADD
:1062300030B593422FD0204A93422FD01F4A934229
:106240002FD01F4A93422FD01E4A93422FD01E4A6E
:1062500093421FD10E2319220121032599401B4887
:10626000C024016099082B40AB40FC359D4089005B
:106270000918A4000859A843C0259D402B000343DA
:106280000B518023DB011A43114B5A805A7852B2CA
:10629000002AFBDB30BD09231422DDE70A23152287
:1062A000DAE70B231622D7E70C231722D4E70D23B6
:1062B0001822D1E700080042000C00420010004202
:1062C0000014004200180042001C004200E100E0FF
:1062D000000C0040F8B504000F0016001D00FFF789
:1062E000A5FF2000FFF748FE1C21BB000B407107F3
:1062F0002268090C0B431360842322689375012FD5
:106300001AD11021012E00D008390C4B69431868AE
:10631000C00002F0A7F80722216802408B895203CF
:10632000DB04DB0C13438B81226803049089DB0CB4
:10633000400B400318439081F8BDC0461400002074
:10634000F7B50600019308AB1F780D001400FFF7A6
:1063500087FE3000FFF76AFFC02224059203144035
:10636000BA070C2717433C43C0270722BF022D045E
:1063700033683D4025431D60019B316813401A007E
:1063800080239B0213434B60F7BD0000F8B5040067
:106390000F00FFF74BFF2000FFF794FE1422236845
:1063A00079001A600C4B25681E68300002F05AF81C
:1063B0000A490400300002F055F87D23FA215843C1
:1063C000C90002F04FF8FF23241AE868053C1C407E
:1063D00098430443EC60F8BD1400002040420F00D5
:1063E0000020704770B50F26CB1D013902003240E6
:1063F000D5B22C0000093034092A00DD07341C70A6
:10640000013B8B42F2D170BD10B50C000B4B1868EC
:10641000FFF7E8FF21000A4B08311868FFF7E2FF99
:106420002100084B10311868FFF7DCFF2100064BF4
:1064300018311868FFF7D6FF202010BD0CA080008F
:1064400040A0800044A0800048A0800008B4024B17
:106450009C46103808BC60470964000070477047CC
:106460003F20704713B56B460268D97107335468F3
:1064700019000122A04716BD70B50A260B7892B00C
:106480006E44023305000B703C220021300003F003
:1064900093FF394801AC0690384824210790062024
:1064A00020776846364AA1742281364A364BA2814B
:1064B000FD3AFF3A8018C177684623390630C17724
:1064C00068460730C17702A8C1770720F277032614
:1064D00008316944C87703A9CE7710212B366E4462
:1064E0003170092621851F3169440E700CA9053EC3
:1064F0000E7033212380022369440B7006360DA9E8
:106500000E7022493536A1863B216E44307010A8AA
:106510006274E27702703D3269446A440B70137012
:1065200040210022E37023716371A37341336B44F4
:10653000218719705A702B7DC039A370A3726377BD
:106540000133DBB2A3776A7D0B200D00684415434D
:10655000C5773120684403703A23501C6B4418708F
:10656000412302320A436B441A7021004222084838
:1065700000F0FEFC12B070BD1001042402060524D8
:106580000904000001020000080B000007050000DC
:106590000C0F002008B4024B9C46103808BC604722
:1065A0007964000070B5027D0B790C0000259A42D9
:1065B0000BD10B784E78A12B09D1212E05D10722C2
:1065C0001B491C4800F0D4FC0135280070BD212B6C
:1065D000FBD1202E22D107221549164800F00AFCD3
:1065E0009622134BD200196891421DD1DB79DB074B
:1065F0001AD4FA2001F0D6FE00210E4800F0C0FDAA
:106600000125232EE1D1E378A2781B0213430A4A25
:1066100000210848136000F0B3FDD6E7222EEFD129
:106620008A78034BDA71DBE701F0C6FEE4E7C04687
:10663000080000200C0F00200400002008B4024BCA
:106640009C46103808BC6047A565000010B50822BC
:106650000021024803F0B0FE10BDC0460800002033
:1066600010B5417D006A013100F0FCFA034B1B6854
:1066700001335A1E9341181810BDC0461000002067
:1066800010B5417D006A023100F002FB10BD10B56B
:10669000417D006A023100F0C9FA10BD70B50D00ED
:1066A000417D0400130002312A00006A00F0B6FBAD
:1066B000002801D10123636070BD000010B5054CB6
:1066C00023685A1C04D103685B6998470300206063
:1066D000180010BD10000020074A0300106810B514
:1066E000411C03D001235B42136010BD597D186A21
:1066F000013100F043FBF8E71000002010B501F075
:1067000099FBF423FF330024984207D9044B0A2055
:10671000DC79631E9C41E4B201F0C2FB200010BD95
:10672000080000200020704770477047FA239B0044
:1067300010B583600F4B0022C382030028338361AE
:106740000D4B04004260C2611800503323610830D1
:10675000631D21622060DA778323A362813BE362B9
:106760008033236301F084FA2100103101F051FAE3
:10677000200010BD030200005CCA0000022110B519
:10678000094B1A68437D5B01D318FF339C7A214380
:106790009972437D0133DBB25B01D3180122FF33D1
:1067A000997A0A439A7210BDC413002010B50249A9
:1067B0000248FFF7BBFF10BD0C0F0020B00E0020F9
:1067C000704710B5040001F0BFFB200010BD0000B1
:1067D000F0B5822919D1C3B2294D5A01AA1891697D
:1067E000284C80010C40C021890521439161264934
:1067F000083340187021506128685B011A5C8A4395
:10680000110030220A431A54F0BD0029FCD1C026E1
:10681000C1B21B4C4B01E3189A681A4DB6052A40C9
:1068200032439A60194A800182185A600A00072789
:10683000246808325201115DB9430F000121394328
:1068400011559F6910493D4040182E439E61586183
:106850007020115D81430800102101431155996892
:106860000B48A218084080214903014399609968A8
:10687000890B89039960402311790B431371C3E796
:10688000C4130020FFFFFF8F380F0020F8100020F6
:10689000FF3F00F0EFF3108303600123436072B603
:1068A00070470368002B02D162B6BFF36F8F704749
:1068B00073B5836D0400002B1BD10600A836357814
:1068C0006846FFF7E7FF019BEDB2013B02D3357845
:1068D000EDB2FAE768460193FFF7E3FF002D01D11F
:1068E000002076BD2300A4331868A0342368C01AA2
:1068F000F7E76846FFF7CEFF22000025019BF43240
:10690000013B02D31578EDB2FAE768460193FFF731
:10691000C8FF002DE4D02300F0331868EC34E5E71D
:1069200010B5436D4468DBB25A01A218916809485A
:1069300008330840802149030143916091685B015D
:10694000890B890391602268D318402219790A4380
:106950001A7110BDFF3F00F0F7B5436D4268DBB21E
:10696000190004000831106849014118C979C907A4
:1069700011D55B01D21893689B049B0C0CD12000AD
:10698000FFF7CEFF63681A68636DDBB208335B0103
:10699000D3187F22DA71F7BDE16D002923D12100E0
:1069A000A4310B6023000125AC33E56568465360D4
:1069B000FFF770FF260020002100019BA836013B55
:1069C000F430F5315A1C33D0357002785F1ED2B2E4
:1069D0000A700A78002A04D120000193FFF7A0FF73
:1069E000E8E73B00EEE72100F0310B600023E365B0
:1069F0002300603353606846FFF74CFF01252600F3
:106A000020002100019BF436013BA830F5315A1CCF
:106A10000ED0357002785F1ED2B20A700A78002A52
:106A200004D120000193FFF77BFFE8E73B00EEE78E
:106A300068460193FFF735FFA4E737B56B46DC1DC9
:106A400000230D00237001F013F9210001F09EF8DE
:106A50002B681818286020783EBD000000780028B8
:106A600010D00121084B1B681A898A431A81082219
:106A7000198B0A431A830422198B0A431A830022B2
:106A8000024B1A607047C046C4130020BC1300209C
:106A900010B50F4A93699B0B9B0393611368022205
:106AA000FF331A729879823A02439A711A7A9207DE
:106AB000FCD57F24074A2140937A0800A34319009C
:106AC000802301439172917A5B420B43937210BD14
:106AD000C41300200050004110B50C0001F0C8F8AC
:106AE000210001F086F8002804D1034A93699B0B2A
:106AF0009B03936110BDC046C4130020F8B50D0080
:106B0000832A19D1CBB23B4C5A01A21891693A4859
:106B1000AD010840C02189050143916137492068D2
:106B20006D187021083355615B011A5C8A431100AE
:106B300040220A431A54F8BD022A55D1304A8B002C
:106B40009858002802D003685B699847F82001F044
:106B5000F7F90400274E2B4B4660036040220021CA
:106B6000083003F029FC22000023A032A3646565ED
:106B7000E3642365A365E3655360D3641372136014
:106B800013654C3213725372FF222B0013405901CC
:106B900071188868184F08330740C02080053843B3
:106BA0008860306807265B01195CAD00B1430E00B8
:106BB0000321314319542300616D6068114049017C
:106BC000411860334B60616D63680A401B68520175
:106BD0009B180122FF33997A20000A439A72FFF72B
:106BE0009FFE074B5C51A6E711002800FFF7F0FD60
:106BF000A1E7C046C4130020FFFFFF8F380F00201D
:106C0000100F0020C4CA000070B505000124064B17
:106C1000A200D258002A06D0210028000134FFF734
:106C20006DFF0A2CF3D170BDE40E00200B4BCAB2ED
:106C30000B488901C9185301C31859619969083271
:106C4000890B89039961036852019A180223D37151
:106C50005179823B0B4353717047C046380F002077
:106C6000C4130020084B8A00D05810B5002803D068
:106C700003689B68984710BDC9B2044B4901591875
:106C800088688004800CF6E7100F0020C4130020F1
:106C900010B50C00FFF7E6FF00280CD0064BE4B25D
:106CA0001B68083464011C19802362795B4213431A
:106CB00063710223E37110BDC4130020F0B51C0002
:106CC0002A4B85B01B6807000D000292002B4AD0AA
:106CD000274B8A00D058002808D0036822005B6840
:106CE000029998470400200005B0F0BD3800FFF776
:106CF000B9FF844204D929003800FFF7B3FF04002C
:106D00000121EBB21B4E03935B010193F2189368D0
:106D10009B0B9B039360019A336802989B18FF3387
:106D20005A7A0A435A72144BA901C918220003F077
:106D300027FB002CD7D029003800FFF793FF00284D
:106D4000D1D14021039B326808335B01D3181879F5
:106D5000014319710121D971019BD318FF339A7A2C
:106D60000A439A72BFE701246442BCE7BC130020C7
:106D7000100F0020C4130020F810002013B56B463C
:106D8000DC1D22000123FFF799FF012801D12078A3
:106D900016BD01204042FBE770B5CBB2124A134842
:106DA0005C0189018918021951609168104D0833FE
:106DB0000D40802149032943402591609168890B4A
:106DC0008903916001685A018A1816793543157153
:106DD00095796D06FCD55B01C918CB79DB07FCD52D
:106DE00000198068C0B270BDF8100020C4130020E4
:106DF000FF3F00F070B50D0000211400FFF7CCFF3D
:106E0000A04200D9200000230349A34203D0CA5C5A
:106E1000EA540133F9E770BDF8100020F0B51E0008
:106E20003A4B85B01B680F000192002B35D08023B0
:106E3000DB019E4231D80025354B8A01D3180293DD
:106E4000002E2CD0334B1B680393FF233B401C00C8
:106E500000930834039B64011C19A379DB0921D03A
:106E60002D4B2E49186801F0FDFA2D4B1721584380
:106E700001F0F8FA2B4BE279920713D4DA5D002A7D
:106E800001D10138F7D20122DA55009B5A01214B7A
:106E90009B189A69920B92039A6101256D42280012
:106EA00005B0F0BD00221F4B3400DA553F2E09D942
:106EB000009B40245A01174B9B18802299691206A7
:106EC0000A439A6122000199029803F059FA009B43
:106ED000A1045A010F4B890C9B18029A2D195A6173
:106EE0009A69361B920B92030A439A61009B039A9C
:106EF00008335B01D3180222DA715979823A0A43C6
:106F00005A71019B1B1901939AE7C046BC130020DC
:106F1000380F0020C41300201400002040420F004E
:106F2000701101002D0F002070B50D001C000D4BDD
:106F3000AE01F61811003000220003F021FAEDB284
:106F400009496D014D196E61AB69084A2000134073
:106F5000AB61AB69A2049B0B920C9B031343AB6127
:106F600070BDC046380F0020C4130020FF3F00F062
:106F7000F7B5104B01901B780F001500002B0CD1BA
:106F80000D4B16001C78002C09D00C4E0C48348890
:106F90002018641903F0F4F934802800FEBD002E97
:106FA000FBD03A19330000210198FFF7BDFF2418E8
:106FB000361AF4E7B8120020B9130020BA130020E3
:106FC000B9120020F8B50F0016000024012A26D9B6
:106FD000100003F0AFF90500380003F03FFF032372
:106FE00002220130400028706B7096420DD939782A
:106FF00000290AD0531CDBB20137A9549E4203D0AA
:107000000232EC54D2B2F0E7320029000548FFF713
:10701000AFFF441EA041C4B2280003F095F9200040
:10702000F8BDC0460C0F0020F0B50024012685B045
:10703000184B0F0069461E7005000094FFF7FDFC19
:10704000154B01A90B806A3BFF3BCB715A330B7286
:10705000009B8C7109334B800E4B4E7108711C7074
:107060003A00092F0FD00D4F09223E700C4E280018
:1070700000943480FFF77CFF69462800FFF7DDFCB1
:10708000328808493C702800FFF772FF012005B0E4
:10709000F0BDC046B812002009020000B91300205C
:1070A000BA130020B912002070B5CE7892B0050056
:1070B0000C00022E0BD18B79C9792C480902194397
:1070C000FFF7B2FF411E8841C0B212B070BD00F0A0
:1070D000CFFD210000F06EFD002803D0C117081A73
:1070E000C00FF2E7012E0ED1E279A37912021A4302
:1070F0001F49112A13D8D2B2002A10D02800FFF756
:1071000037FF0120E1E7032EDFD1A378002B08D160
:10711000E279A37912021A431649032AEBD90A78B5
:10712000ECE7022B08D1E279A379120212491A4343
:107130002800FFF747FFC8E7012B05D1E279A379C3
:1071400012021A430D49F3E7032BBED1412201007D
:1071500001A803F031F900F08BFD01A900F03AFD20
:10716000E279A37912021A4301A9E1E70C0F00208A
:1071700006CB0000F6CA0000E0CA0000FACA000010
:10718000CBB204495B01C9188B699B0B9B038B61D4
:107190007047C046C413002037B5050048780C007E
:1071A0000B2810D801F054F9061B0F2B0F40456136
:1071B000494C5A5D097801AA002906D102231180A1
:1071C0002800FFF7B1FE01203EBD00231380284BAD
:1071D0001B78012B00D1137002230021F0E78A787D
:1071E0000023012A03D101AA1380224BF0E7204A91
:1071F0001370214A93699B0B9B039361E3E78C789F
:10720000012C06D100211B4B01AA1C701170230018
:10721000D6E70120002CD7D1154B174A1870936977
:107220009B0B9B039361CFE789782800FFF730FC25
:10723000C9E72800FFF738FFC6E701230F4ACCE76C
:107240000B780020DB06BFD12800FFF7DDFCA27819
:107250000A4B0B481A60FFF791FACAE70123094A63
:10726000BBE78A78074B1A60C3E70020ACE7C0464B
:107270002C0F0020340F0020C4130020BC1300206A
:10728000B00E0020C01300203A4BF7B51E78050061
:10729000002E5FD1384C23689A8B12070DD5082237
:1072A00031009A833000FFF793FA10222368FF33EE
:1072B000997A0A439A72314B1E6023689A8B52075F
:1072C00001D504229A83FF331A7A920603D520222D
:1072D000597A0A435A721A7AD20623D569460800A7
:1072E000274AC0CAC0C0A268920B9203A260402283
:1072F000587902435A7160230A7828001A422AD129
:10730000FFF74AFF2368FF33002827D080229979AE
:1073100052420A439A711A7A520603D54022597A88
:107320000A435A727F2601252368FF331E722F00FD
:10733000236808377F01DB19DB79002B07D0114B5D
:10734000AA00D05800280DD003681B689847013563
:10735000082DECD1F7BDFFF7BFFBD3E720210A4A88
:107360009171D8E729000948FFF7DFF92368DF1991
:10737000FE71ECE7B9130020C4130020BC130020F9
:10738000F8100020100F0020FF500041B00E002028
:1073900010B50248FFF778FF10BDC0460C0F002063
:1073A00080235B0003800023436007330372704730
:1073B00083000148C0187047E40E0020836C402B06
:1073C00009D03F22036CC154036C013313400364A2
:1073D000836C013383647047F7B505006846FFF797
:1073E00059FA00264022019B013B02D32E6D961BC9
:1073F000FAE768460193FFF754FAAB6D6846002B35
:107400004FD1FFF747FA2900019BA831013B5A1CD5
:107410000CD00C785A1EE4B2002C05D168460193BA
:10742000FFF73FFA2000FEBD1300F0E76846019326
:107430000024FFF736FA2A002900A0321368A4318D
:10744000B4420ED0086898420BD92800591CEB189A
:107450001160603319780830C9B2FFF7AFFF01340B
:10746000E9E709689942DDD1002313600133AB6578
:107470006846FFF70FFA2F002A000021019BA8376A
:10748000013BF532581CC9D0397010785E1E0028B7
:1074900005D0117028000193FFF742FAEBE73300A3
:1074A000F0E7FFF7F7F92900019BF431013B5A1C83
:1074B00006D00C785A1EE4B2002CAFD01300F6E7C9
:1074C000684601930024FFF7ECF92A002900EC320A
:1074D0001368F031B44202D0086898421DD8096898
:1074E00099429FD1002368461360AB65FFF7D2F93C
:1074F0002F002A000021019BF437013BF532581C74
:1075000000D18BE7397010785E1E002811D0117001
:1075100028000193FFF704FAEAE72800591CEB184A
:107520001160AC3319780830C9B2FFF747FF013456
:10753000CBE73300E3E710B50400FFF74DFF206D04
:1075400010BD10B50400FFF747FF236D002B03D0DB
:10755000E36CE418207A10BD01204042FBE7F7B548
:1075600017000E000400FFF737FF6846FFF792F997
:107570003F2200259446019B013B5A1C19D0BD4275
:1075800015D2226D002A12D00121226D4942002A13
:107590000AD06046E26CA218117AE26C0132024015
:1075A000E264226D013A226571550135E7E7013B3E
:1075B000E3E768460193FFF774F92800FEBD000079
:1075C000014B024A1A607047C4130020005000416A
:1075D0002023F7B5474A0500D1690F200B43D3613B
:1075E000012245490B7813430B70444B19788143B2
:1075F000197006211C782143197041490C782243E7
:107600000A701A7802401A70602219780A431A70B8
:107610003C4B3D4A5A805F78FF09FCD13B4800F063
:1076200003FC01233A4C3B4E2268300011780B4397
:10763000137080223900520002F0BEFE2268937857
:10764000DB07FCD456621F26334B1B68590B980C82
:107650009B01314030405B0FB14200D105211F2812
:1076600000D10238072B00D1043B31408901178D2E
:1076700001912A4930400F40019939431185118DFC
:107680000700B143080038431085118D1803244BBF
:107690007F260B4003430C2013850823D1788143B8
:1076A0000B430321D3702268D3788B4301390B43FA
:1076B000D37022681378334013700423226816783D
:1076C000334313702268C1241389A40083431548EF
:1076D000138103591B021B0A035180230360137893
:1076E00011481943012311702B700021FEF7B6FEDB
:1076F000F7BDC04600040040584400413C440041EE
:1077000059440041000C0040064000009173000005
:10771000C4130020C8130020246080003FF8FFFF3E
:10772000FF8FFFFF00E100E0B00E00200120704756
:1077300010B50368014A1B6A984710BD1304000086
:10774000FC30006A704787239B00C018C368802004
:107750004000C01A70470300FC331A6A002A03D0A5
:10776000DB69C018007D704701204042FBE710B57F
:1077700004000069FEF700FC22000023FC32936144
:10778000D361136287229200A4186360A360E36050
:1077900010BD872310B59B00C218D368002BFCD105
:1077A0000069FEF700FC10BDF0200140303948426E
:1077B00048417047F0231B011940802306209B009D
:1077C00099420AD00133FF330130994205D080231A
:1077D00002385B00994200D0002070470F20014022
:1077E0000020012903D00239481E8141481C7047FE
:1077F0008B23F0B5182685B002919B000400C05C75
:10780000330008214343324D1700EB18595600F05E
:1078100069FD304B0821E05C33004343EB185956B7
:1078200000F060FD2C4BE25C0393022A09D1113376
:10783000E05CFF2805D008214643AE19715600F0E0
:1078400051FD8C26B600A05DFF2819D0012100F063
:10785000D1FC1822A35D21495A43AB56AD18DB0178
:1078600058188D21890060501D4901225B188E2116
:107870008900635069688A408F21890062501A60CC
:107880000122029B11002069FEF724FD390020002F
:10789000FFF790FF390005002000FFF79FFF390038
:1078A00006002000FFF780FF3300009029002069C8
:1078B0000122FEF731FB0B4B2069E25C039BE15C8C
:1078C000FEF747FB2069FEF764FB05B0F0BDC0463C
:1078D000B4C600002D0200002F0200001844004131
:1078E000144400412E020000802210B50400520012
:1078F000002102F061FD23000022FC335A602000C9
:107900009A60DA6010BD0000F7B51D0008AB1B7867
:107910000400009309AB1B78160001930023436019
:10792000FA239B008360114B0F000833036014306F
:10793000FFF7DAFF20002130FF30FFF7D5FF8B2360
:107940006A469B002761E654094B1278E554094BBF
:107950002000E2546A46084B1279E2548C22313BF3
:10796000FF3B9200A3541032A354FEBD18CB00007D
:107970002D0200002E0200002F020000F7B5EFF3E9
:10798000108300930123019372B680260200FF2525
:10799000019BFC327600013B5C1C0FD0D4685F1E5B
:1079A000B44209D054680155546801342C405460E5
:1079B000D4680134D460EEE73B00EDE768460193FC
:1079C000FEF76FFFF7BD13B5EFF3108300930123AC
:1079D000019372B6019B5A1E0192002B15D0030031
:1079E000FC33DA68002A0DD09A68845C9A68013208
:1079F000D2B29A60DA68013ADA606846FEF751FF5F
:107A0000200016BD01246442F7E701246846FEF712
:107A100048FF6442F4E710B504000069FEF7E1FA9C
:107A2000002805D02069FEF7ECFA2069FEF7DEFA9F
:107A30002069FEF7C6FA00281BD02069FEF7E1FA9C
:107A4000010020001430FFF799FF8C239B00E35CBA
:107A5000FF2B0ED02300FC331A6A80235B009B1A95
:107A6000092B06DC8D238F229B009200E358A2583D
:107A70001A602069FEF7C0FA00280ED087239B0009
:107A8000E318DB68002B14D020002130FF30FFF713
:107A90009AFFC1B22069FEF7B8FA2069FEF796FA9C
:107AA000002805D02069FEF795FA2069FEF785FACF
:107AB00010BD2069FEF7B7FAEFE70000F8B5040043
:107AC00000690D00FEF798FA87239B00E61800284E
:107AD00002D0F368002B34D001278022F3685200D3
